:020000040800F2
:1000000040060020010100083F19000849150008BA
:100010003D190008310300083122000800000000EB
:10002000000000000000000000000000391E000871
:100030003303000800000000611900083B1E00089F
:100040001B0100081B0100081B0100081B01000820
:100050001B0100081B0100081B0100081B01000810
:100060001B0100081B0100081B0100081B01000800
:100070001B0100081B0100081B0100081B010008F0
:100080001B0100081B0100081B0100081B010008E0
:100090001B0100081B0100081B0100081B010008D0
:1000A0001B0100081B0100081B0100081B010008C0
:1000B0001B0100081B0100081B0100081B010008B0
:1000C0001B0100081B0100081B0100081B010008A0
:1000D0001B0100081B0100081B0100081B01000890
:1000E0001B0100081B0100081B010008DFF80CD0F1
:1000F00000F00CF9004800475D230008400600208E
:100100000648804706480047FEE7FEE7FEE7FEE7B1
:10011000FEE7FEE7FEE7FEE7FEE7FEE7B11E0008AA
:10012000ED000008F0B480EA0102D40F4200B2EB07
:10013000410F02D20246084611464A0042D0C30D82
:10014000DDB2C1F3C752AD1A202D35DAC1F3160165
:1001500041F4000204B15242C5F1200602FA06F150
:100160002A411044B3EBD05F23D0C4B1012DA0EBE2
:10017000C35009DCF0BC4FF0004202EAC352DBB2CC
:1001800000F5000000F094B8400000F1807000EB32
:10019000C350A0F1807040EAD170490009E04908DD
:1001A00041EAC071A0EBC35000F50000400800EB2D
:1001B000C350F0BC00F073B86142012202EB410170
:1001C000001BF6E7F0BC704781F00041AAE780F021
:1001D0000040A7E780EA010210B502F000434000AA
:1001E00022D04A001FD0010E01EB1261C0F356006D
:1001F000C2F3560240F4000042F40002A0FB0220C9
:1002000000047F39140400D0401C50EA124001D48D
:100210004000491EC2B20C0604EBD010401C40083E
:10022000802A02D003E0002010BD20F00100002948
:1002300000DA0020184310BD420005D0C0F3C752B9
:100240005242914201DC0020704700EBC1507047E0
:10025000C10F80EAE0700844CA079623002100F02D
:1002600027B896230022114600F022B800F0004281
:1002700020F00040C10DC0F3160040F400007F29BB
:1002800001DA00207047962903DCC1F19601C840CD
:1002900001E096398840002AF4D040427047002996
:1002A000A8BF7047401C490008BF20F001007047FC
:1002B00010B4B0FA80FC00FA0CF050EA010404BF5C
:1002C00010BC704749B1CCF1200421FA04F411FAB2
:1002D0000CF118BF012121430843A3EB0C01CB1DF6
:1002E0004FEA00614FEA102042BF002010BC704767
:1002F00000EBC35010440029A4BF10BC7047401C41
:10030000490008BF20F0010010BC7047064C074DA3
:1003100006E0E06840F0010394E8070098471034D5
:10032000AC42F6D3FFF7E6FE28270008482700086E
:10033000FEE7704710B590F821100024022903D081
:100340000421816301243DE001680A6822F00E0265
:100350000A6001680A6822F001020A601A4A01680C
:10036000914201D1012121E0174A1432914201D179
:1003700010211BE0144A2832914201D1891515E061
:10038000114A3C32914201D189140FE00E4A503299
:10039000914202D14FF4803108E00B4A643291421D
:1003A00002D14FF4801101E04FF08071064A083A03
:1003B0005160012180F82110002180F82010416B4C
:1003C00001B18847204610BD0800024070B50446C0
:1003D00000F0F2F80546601C02D00448007804449E
:1003E00000F0EAF8401BA042FAD370BD10000020D4
:1003F0002DE9F84FDFF890A100220AF1040B144612
:1004000001274FF00F090BF1040E00BF0B6807FA2C
:1004100004F52B40AB4274D1DFF870C14E68A6EBF7
:100420000C0866452BD00DDC032E34D005DC36B32A
:10043000012E19D0022E2FD11BE0112E16D0122E14
:100440002AD119E0B8F5881F19D006DCB8F5803F2D
:1004500015D0B8F5801F1FD111E0B8F5001F0ED0E0
:10046000B8F5041F18D10AE0CA6815E0CA68121D61
:1004700012E0CA6808320FE0CA680C320CE08A68E1
:100480002AB1012A4FF0080203D0456104E004229A
:1004900002E0056100E00022FF2B01D8064601E0E2
:1004A00000F104064FEA840501D9A5F12005D6F82C
:1004B00000C009FA05F82CEA080C02FA05F54CEA26
:1004C000050CC6F800C04D68ED0057D5304DAE693B
:1004D00046F00106AE61AD6924F0030605F00105A2
:1004E00000952C4D06EB050CDCF80850A6074FEAEA
:1004F000167809FA08F6B543274EB04202D1002615
:1005000010E03BE0254EB04201D101260AE0244E26
:10051000B04201D1022605E0224EB04201D10326AD
:1005200000E0042606FA08F62E43CCF808604D6871
:10053000DAF80060ED03554601D51E4300E09E4306
:100540002E604D68DBF80060AD035D4601D51E43AB
:1005500000E09E432E604D68DEF80060ED027546B7
:1005600001D51E4300E09E432E604D68AD020E4D46
:100570002E6801D51E4300E09E432E60641C102CA3
:10058000FFF444AFBDE8F88F0004014000001110F3
:10059000001002400000014000080140000C014032
:1005A00000100140001401400C0401400AB1016137
:1005B00070470904FBE700000148806870470000AD
:1005C0001000002070B504001BD094F83D000025F9
:1005D00020B984F83C50204600F094F8242084F898
:1005E0003D002068016821F00101016000F01AFA65
:1005F000404A6168914201D83F4900E03F49884242
:1006000001D2012070BD3E492368B0FBF1F1596071
:100610006368934206D94FF4967359434FF47A7343
:10062000B1FBF3F12368491C19626168914210D84B
:100630004900401EB0FBF1F2521CC2F30B02042A27
:1006400001D2042022E0B0FBF1F0401CC0F30B000B
:100650001CE0A368CBB301EBC10202EB0116421E02
:10066000B2FBF6F2521C42F48042120536D06BB354
:1006700001EBC10202EB0111401EB0FBF1F0401C86
:10068000C0F30B0040F4804040F400402168C86192
:10069000D4E90701084321680860D4E9031008433E
:1006A00021688860D4E9050108432168C860206892
:1006B000016841F0010101602564202084F83D00BB
:1006C000256384F83E50002070BD00E008E001EB97
:1006D0004106421EB2FBF6F2521CC6E70120D5E7E6
:1006E00001EB4101401EB0FBF1F0401CC0F30B00D8
:1006F000CAE70000A086010080841E0000093D00BA
:1007000040420F0000B50068104985B088421AD1F8
:100710004FF440700090122001900320039069462E
:100720000B48FFF765FE0B48416841F0E06141F07E
:10073000020141600848C16941F40011C161C0690A
:1007400000F40010049005B000BD0000005400400B
:10075000000C014000000140001002400248816886
:10076000027811448160704710000020074810B5DE
:10077000016841F010010160032000F091F80020B1
:1007800000F006F800F024F8002010BD0020024020
:1007900070B50D4D04464FF47A712878B1FBF0F036
:1007A0000A490968B1FBF0F000F0B6FC48B9102C1A
:1007B00007D200222146501E00F052F800206C6043
:1007C00070BD012070BD0000100000201C00002042
:1007D000214808B5816941F001018161816901F019
:1007E00001010091C16941F08051C161C06900F00F
:1007F00080500090032000F053F8002211466FF063
:100800000B0000F02DF8002211466FF00A0000F0F6
:1008100027F8002211466FF0090000F021F80022AD
:100820001146501F00F01CF800221146101F00F066
:1008300017F800221146901E00F012F8002211460F
:10084000501E00F00DF80548416821F0E06141F0CC
:100850000071416008BD000000100240000001402E
:10086000F0B40E4B1B680C46C3F30223C3F107051B
:10087000042D00D90425191D072901D2002300E009
:10088000DB1E012606FA05F1491E214099409E40D3
:10089000761E16403143F0BC01F052B80CED00E07A
:1008A000064900F0070208684FF6FF03184040EAC7
:1008B0000220034A10430860704700000CED00E07E
:1008C0000000FA052DE9F047DFF83C8105460E46A9
:1008D000D8F8000000F00700B0420CD2D8F80010A1
:1008E00021F007013143C8F80010D8F8000000F0EB
:1008F0000700B04263D12878444C800705D5606872
:10090000A96820F0F000084360602878C00745D04F
:100910006868012816D02168022816D089070029A6
:100920004DDA616821F0030101436160FFF744FE85
:100930006968074641F2883001290FD002298146B3
:1009400019D027E021688903E9E78901E7E700BFBB
:10095000FFF732FEC11B494501D918E081466068A6
:10096000C0F381000128F3D118E000BFFFF724FE97
:10097000C11B49450BD86068C0F381000228F5D13E
:100980000CE000BFFFF718FEC11B494502D9032048
:10099000BDE8F087606810F00C0FF3D1D8F80010B4
:1009A000404601F00701B1420BD9016821F007016F
:1009B00031430160006800F00700B04201D001201F
:1009C000E6E72878400705D56068E96820F4E0602C
:1009D000084360602878000706D56068296920F41C
:1009E000605040EAC100606000F03CF86168084A6D
:1009F000C1F30311515CC840064908600020FFF7AD
:100A0000C7FE0020C4E700000020024000100240A2
:100A1000102700081C0000200148006870470000F3
:100A20001C0000200448054900684968044AC1F3D5
:100A30000221515CC84070471C0000200010024099
:100A4000202700080448054900684968044AC1F3A2
:100A5000C221515CC84070471C00002000100240B9
:100A60002027000812A185B00FC98DE80F0014A03F
:100A7000144A006804905168134801F00C03042BD9
:100A800010D0082B0ED1C1F38343C9031DF8030016
:100A90000AD5516804AAC1F34041515C0A4A504347
:100AA000B0FBF1F005B0704708494843FAE7000091
:100AB00002030405060708090A0B0C0D0E0F10109F
:100AC000010200000010024000127A0000093D00FF
:100AD0002DE9F84F04460078B94DC00748D0686842
:100AE000C0F38100012807D06868C0F381000228A4
:100AF00009D16868C00306D52868800338D56068C6
:100B000000286FD034E06068B0F5803F0BD010B1A2
:100B1000B0F5A02F11D0286820F480302860286814
:100B200020F4802002E0286840F48030286060686B
:100B300088B1FFF741FD064609E0286840F48020AF
:100B40002860F0E7FFF738FD801B642875D8286817
:100B50008003F7D50CE0FFF72FFD064605E000BF48
:100B6000FFF72AFD801B6428F0D828688003F7D49B
:100B70002078944E80074FF001094FF000083BD5D4
:100B8000686810F00C0F07D06868C0F38100022875
:100B900009D16868C00306D42868800714D5206985
:100BA00001281FD110E02069B0B1C6F80090FFF70E
:100BB00003FD074605E000BFFFF7FEFCC01B02284F
:100BC000C4D828688007F7D52868616920F0F80044
:100BD00040EAC10028600FE0C6F80080FFF7ECFC97
:100BE000074606E0E9E000BFFFF7E6FCC01B02286D
:100BF00023D828688007F7D4207800072CD57248BE
:100C0000A169D9B1C0F80090FFF7D6FC074604E00F
:100C1000FFF7D2FCC01B02280FD8686A8007F7D5FF
:100C20006A484FF4FA510068B0FBF1F0009000BF41
:100C30000098411E0091FAD20EE080E0C0F80080DA
:100C4000FFF7BAFC074604E0FFF7B6FCC01B02281A
:100C500075D8686A8007F7D42078400760D5E869BE
:100C60000027C00008D4E86940F08050E861E869D6
:100C7000012700F08050009055480168C90513D441
:100C80000168834641F480710160FFF795FC82465C
:100C900006E000BFFFF790FCA0EB0A0064284ED8E6
:100CA000DBF80000C005F5D5E06801280AD008B1DE
:100CB000052813D0286A20F001002862286A20F055
:100CC000040002E0286A40F001002862E06841F276
:100CD000883B98B1FFF770FC82460BE0286A40F031
:100CE00004002862EEE700BFFFF766FCA0EB0A01F4
:100CF00059455AD8286A8007F6D50CE0FFF75CFC06
:100D0000824605E0FFF758FCA0EB0A0159454CD894
:100D1000286A8007F6D41FB1E86920F08050E861A6
:100D2000E06988B36968C1F38101022945D00228CE
:100D3000C6F8608004D0FFF73FFC044638E034E09A
:100D4000FFF73AFC074604E0FFF736FCC01B022819
:100D50002BD828688001F7D4206AB0F5803F05D1F0
:100D60006868A16820F4003008436860D4E908018D
:100D70000843696821F4741108436860C6F86090FC
:100D8000FFF71AFC044606E015E000BFFFF714FC6D
:100D9000001B022809D828688001F7D50BE000BFA6
:100DA000FFF70AFC001B022802D90320BDE8F88FD8
:100DB00028688001F4D40020F8E70120F6E700005D
:100DC0000010024000004242800442421C00002009
:100DD000007000407047000038B504460068426863
:100DE00081684B0605D4CB0703D0530601D5216C8F
:100DF00004E08B0707D5130605D5616C01B02046CA
:100E0000BDE83040084711F0600F3FD093063DD554
:100E10004B060AD594F85130032B34D0636D43F060
:100E200004036365C36883680093890609D5616D0F
:100E300041F00101616581680091016821F0400184
:100E40000160606D002821D02068416821F0E00138
:100E50004160012084F85100900718D02068416853
:100E600021F0030141600C4DE06C18B14563E06C6A
:100E7000FFF760FAA06C002808D04563A06CBDE8BD
:100E80003840FFF757BAC1688068009038BD2046E7
:100E9000FFF7A0FF38BD00001F1B000870B504005D
:100EA00005D00025A56294F8510010B104E001209E
:100EB00070BD204600F034F8022084F8510020680C
:100EC000016821F040010160D4E901010843D4E93F
:100ED00003121143084361690843218B01F4007137
:100EE0000843E1690843216A0843A16A084321686D
:100EF0000860A069042101EA1040616A0843216882
:100F000048602168E06A08612068C16921F40061D5
:100F1000C1616565012084F85100002070BD0000AA
:100F200010B50068194986B088422CD118488169EB
:100F300041F4805181618069002400F48050049064
:100F40004FF40040CDE90004694612480294FFF7CF
:100F50004FFA2820CDE9000402940F4C6946204640
:100F6000FFF746FA10200090022001900320039022
:100F700069462046FFF73CFA0848416841F0E061C5
:100F800041F00101416006B010BD00000030014099
:100F90000010024000080140000C01400000014028
:100FA000F0B400248568134604261DB94268B2F5E2
:100FB000827F0DD090F85020012A0FD0012280F8B6
:100FC000502090F851700022012F0AD0022431E005
:100FD00080F85160F0BC0A4600F03EB80220F0BC38
:100FE000704771B16BB180F851604265816383874E
:100FF000C38702638286C2864264C16819B10F4901
:1010000002E0012416E00E490164B5F5004F04D159
:1010100001680B6823F480430B6001684B6843F060
:1010200060034B6001680B685B0603D40B6843F0F8
:1010300040030B6080F850202046D0E7651D000873
:10104000851D0008052202490248FFF7A9BF0000DC
:101050000800002074000020F0B590F850500024E3
:10106000012D0CD0012580F8505090F851500026E9
:101070004768012D0BD0B7F5827F06D101E0022031
:10108000F0BD87680FB9042D01D002242AE031B1E8
:101090002AB123B190F85150012D02D004E001246F
:1010A00020E0052580F85150466501638386C3869C
:1010B00082638387C387C16819B10C4901640C49F5
:1010C00002E00C4901640C49416401684A6842F03D
:1010D000E0024A6001680A68520603D40A6842F0D6
:1010E00040020A6080F850602046F0BD6319000895
:1010F000C119000893190008F119000870474FF052
:10110000E0210428086903D020F00400086170473A
:1011100040F00400FAE7704710B5401EB0F1807F40
:1011200001D3012010BD4FF0E02460610F21601752
:1011300000F006FC0020A06107202061002010BD07
:1011400010B5FFF7E8FF10BD10B590F83C20012A5C
:1011500025D0012280F83C20CA688C6822F44072B5
:1011600022434C6822F4806222430C6822F400621D
:1011700022430C6922F4805222434C6922F400522B
:1011800022438C6922F48042224322F40041026807
:1011900000232143516480F83C30002010BD022020
:1011A00010BD30B590F83C20012A20D0012280F8F3
:1011B0003C20022380F83D3003685C6824F0700412
:1011C0005C6003685C680D682C435C6003689C6825
:1011D00024F080049C6003689C6849680C439C6010
:1011E00080F83D20002180F83C10084630BD0220E8
:1011F00030BD00007FB5134A0168022412489142B5
:1012000004D14FF47061CDE9001415E00325B1F16C
:10121000804F0FD00D4A914212D1C021CDE9001468
:1012200069460394FFF7E4F8CDE90054694608489D
:10123000039403E0CDE9005469460394FFF7D8F81E
:101240007FBD0000002C0140000801400004004068
:10125000000C014070B5044690F83C000D46012892
:101260000DD0012684F83C60022084F83D0042B194
:10127000042A18D0082A2AD00C2A4DD139E002209D
:1012800070BD206800F07AFE2068816941F0080195
:1012900081612068816921F0040181612068816990
:1012A0002A69114311E0206800F090FE20688169EE
:1012B00041F4006181612068816921F4806181616C
:1012C000206881692A6941EA0221816124E020685D
:1012D00000F0A8FE2068C16941F00801C1612068E2
:1012E000C16921F00401C1612068C1692A69114303
:1012F00011E0206800F0C2FE2068C16941F400617D
:10130000C1612068C16921F48061C1612068C1693F
:101310002A6941EA0221C16184F83D60002084F815
:101320003C0070BD10B5040003D094F83D0010B12E
:1013300007E0012010BD002084F83C00204600F0AA
:101340000DF8022084F83D00211D206800F0D4FD36
:10135000012084F83D00002010BD000008B5124AAD
:1013600001681248914207D1816941F400618161AD
:10137000806900F4006014E0B1F1804F0AD00C4A9B
:1013800091420FD1C16941F00201C161C06900F011
:10139000020006E0C16941F00101C161C06900F0CD
:1013A0000100009008BD0000002C01400010024028
:1013B0000004004010B504460068012200F0D2FD90
:1013C00007492068884203D1416C41F400414164DF
:1013D0002068016841F001010160002010BD00009B
:1013E000002C014010B504460068002200F0BAFD50
:1013F000104B41F2111120688A10984209D1036AFA
:101400000B4206D1036A134203D1436C23F4004319
:1014100043642068036A0B4206D1016A114203D17A
:10142000016821F001010160012084F83D000020E5
:1014300010BD0000002C014070B5040004D094F8E9
:101440003900002510B106E0012070BD84F8385045
:10145000204600F023F8242084F839002068C16871
:1014600021F40051C160204600F02AFE2068016985
:1014700021F4904101612068416921F02A01416114
:101480002068C16841F40051C160E563202084F800
:10149000390084F83A00002070BD000030B5244DBA
:1014A0000368002423480221032285B0AB4221D1E6
:1014B000836943F48043836180691F4D00F4804059
:1014C00004904020CDE90001039269462846FEF7CA
:1014D0008FFF8020CDE90004694628460294FEF77C
:1014E00087FF1648416841F0E06141F00401416026
:1014F00005B030BD124DAB42FAD1C36943F400339D
:10150000C361C0690F4D00F4003004900420CDE9A0
:101510000001039269462846FEF76AFF0820CDE9DC
:101520000004694628460294FEF762FFE0E70000E7
:101530000038014000100240000C01400000014052
:101540000044004000080140FEE7000030B51C48A0
:1015500085B0816941F020018161816901F020013C
:101560000491816941F004018161816901F0040104
:101570000491816941F0080181618069114D00F099
:1015800008004FF440640490002221462846FFF7EB
:101590000DF80120CDE9004000240220CDE90240F1
:1015A00069462846FEF724FF4FF470400090064835
:1015B000CDE9010469462846FEF71AFF05B030BDA3
:1015C00000100240000C0140000011100E4810B540
:1015D0000C4901600D49416000214FF48042816057
:1015E000C0E9031241618161C1610162FEF7EAFF56
:1015F000002805D0BDE81040422105A000F019BE2A
:1016000010BD00000054004020000020A086010012
:101610002E2E2F5372632F6932632E630000000059
:101620000F4810B50D490160002141608160C16023
:10163000016120224161C0E90612016241628162BA
:101640000A21C162FFF72AFC002805D0BDE810403E
:10165000462104A000F0EDBD10BD000000300140A7
:10166000740000202E2E2F5372632F7370692E6327
:101670000000000010B5344890B0324901604721A5
:101680000024C0E9011440F2CF71C0E903144461A1
:101690008461FFF747FE18B143212CA000F0C9FD7B
:1016A0000E940EA928480F94FFF77BFD18B14A212C
:1016B00026A000F0BEFD6020CDE900040294039452
:1016C00004940594002269461F480694FFF7C2FD62
:1016D00018B156211DA000F0ACFD042269461A483D
:1016E000FFF7B8FD18B15B2118A000F0A2FD082299
:1016F00069461548FFF7AEFD18B1602113A000F050
:1017000098FD0C2269461048FFF7A4FD18B1652129
:101710000EA000F08EFD0794089409944FF4005039
:101720000A94CDE90B4007A907480D94FFF70CFD7B
:1017300018B1712105A000F07CFD0348FFF75AFDA8
:1017400010B010BD002C0140CC0000202E2E2F53D5
:1017500072632F74696D2E630000000010B51D4880
:101760008AB04FF080410024C0E900148460C46056
:1017700004618461FFF7D6FD18B1852116A000F041
:1017800058FD079407A913480894FFF70AFD18B1FC
:101790008C2111A000F04DFD6020CDE900040294E1
:1017A000002269460B480494FFF754FD18B19521B7
:1017B00009A000F03EFD042269460648FFF74AFDF5
:1017C00018B19A2104A000F034FD0248FFF712FD81
:1017D0000AB010BD0C0100202E2E2F5372632F74FF
:1017E000696D2E630000000010B529488AB02749B2
:1017F000016047210024C0E9011440F2CF71C0E923
:1018000003148461FFF78EFD18B1AE2121A000F012
:1018100010FD079407A91E480894FFF7C2FC18B1F1
:10182000B5211CA000F005FD6020CDE90004029464
:101830000022694616480494FFF70CFD18B1BE213A
:1018400014A000F0F6FC042269461148FFF702FDDF
:1018500018B1C3210FA000F0ECFC082269460C4827
:10186000FFF7F8FC18B1C8210AA000F0E2FC0C2236
:1018700069460748FFF7EEFC18B1CD2105A000F03E
:10188000D8FC0348FFF7B6FC0AB010BD00040040C6
:101890004C0100202E2E2F5372632F74696D2E631E
:1018A000000000000D4810B50B4901604FF4E13114
:1018B0004160002181600C22C160C0E90412816195
:1018C000C161FFF7B9FD002805D0BDE810404321F4
:1018D00003A000F0AEBC10BD003801408C01002018
:1018E0002E2E2F5372632F75736172742E63000056
:1018F0000D4810B50B4901604FF4E1314160002102
:1019000081600C22C160C0E904128161C161FFF7EE
:1019100093FD002805D0BDE81040562103A000F03B
:1019200088BC10BD00440040CC0100202E2E2F5357
:1019300072632F75736172742E630000FEE7704747
:101940000907090E002806DA00F00F0000F1E02078
:1019500080F8141D704700F1E02080F800147047F3
:1019600070470168C968826B1180816B891C816333
:10197000C18F491EC187C18F002909D101684A68FA
:1019800022F040024A60C18E002901D100F058B80F
:10199000704701680B7B816B4A1C82630B70C18F9F
:1019A000491EC187C18F002909D101684A6822F008
:1019B00060024A60C18E002901D100F041B8704731
:1019C000016B02680988D160016B891C0163C18EBB
:1019D000491EC186C18E002909D101684A6822F0DA
:1019E00080024A60C18F002901D100F029B87047F8
:1019F000016B4A1C0263026809781173C18E491E8B
:101A0000C186C18E002909D101684A6822F080028E
:101A10004A60C18F002901D100F012B8704738B573
:101A20000B46009204460022802100F0BAF90028FB
:101A300004D0606D40F020006065032038BD0000D8
:101A400038B50446214845F6C0510068B0FBF1F0B6
:101A5000642148430090FEF7AFFD024620684168CC
:101A600021F0200141600098411E009104D2606D78
:101A700040F02000606503E0206880688007F2D5B0
:101A800064212046FFF7CBFF18B1606D40F02000C5
:101A90006065A06818B92068C16880680090616DB1
:101AA000012029B184F851002046FFF793F938BD91
:101AB00094F8511084F851000429204602D0FFF711
:101AC0001DFB38BDFFF7BEFA38BD00001C0000202A
:101AD00008B501684A6822F060024A604168B1F5C1
:101AE000827F0BD18168B1F5004F02D0B1F5806FD4
:101AF00004D101680A6822F040020A60816819B9BD
:101B00000168CA6889680091012180F85110416D0F
:101B100011B1FFF75FF908BDFFF794FA08BD10B5E2
:101B2000406A0021C187C186FFF754F910BD00004B
:101B30002DE9F0478846074602E07C48FFF74CF95C
:101B400038790028F9D03878B7F80140784E6FF02E
:101B5000070A712870D01FDC764D692852D010DC3E
:101B6000652840D006DC012835D0022835D003286E
:101B700032D134E066283AD067283BD068282BD190
:101B80003CE06A384FF00509072825D2DFE800F06D
:101B900042464D555C606800D32876D010DCC928D9
:101BA00074D006DC722876D073287ED0C82813D172
:101BB0007EE0CA286DD0CB286CD0D2280CD186E02C
:101BC000D4380C2808D2DFE800F0888B92929292E9
:101BD00092928E9095972C8089E0204600E060429A
:101BE00000F00EFD83E000F0E5FC288821E000F025
:101BF000E1FC7CE000F0DEFC288822E000F0DAFC6A
:101C0000002202E000F0D6FC01220021288800F02A
:101C100039FB6CE000F0CEFC012102E000F0CAFCD0
:101C20000021288800F0E2FB61E000F0C3FCB4FB77
:101C3000F9F000F0F5FB5AE01AE000F0BBFCB4FB51
:101C4000F9F000F017FC52E000F0B4FC002202E0D2
:101C500000F0B0FC01222146288800F02DFB46E070
:101C60002046FEF7FEFA5146FEF7E6FA314607E057
:101C70002046FEF7F6FA5146FEF7DEFA01463046F8
:101C80004FEA060200F002FD31E023E013E002E03B
:101C90000BE016E018E02046FEF7E3FA5146FEF7A7
:101CA000CBFA024630463146ECE700F08FFB1EE0EF
:101CB0002146214801E021482146006800F06CFCE3
:101CC00015E021461E48F8E721461E48F5E7214663
:101CD0001D48F2E721461D48EFE721461C48ECE786
:101CE00021461C48E9E71C4800E01C48048000200D
:101CF000014616E01A48F9E74FF4FA74204600F05E
:101D00008FFB40F2DC552846FEF760FB00F052FCEA
:101D1000204600F0AFFB2846FEF758FB67E7395432
:101D2000401C4045FBDBBDE8F0870000740000204C
:101D3000000080BF00000020F0260008F826000800
:101D40000027000808270008F4260008FC260008E1
:101D5000042700080C2700080200002004000020CF
:101D6000060000200168C968826B1180816B891CA4
:101D70008163C18F491EC187C18F002901D1FFF73F
:101D8000A7BE704701680B7B816B4A1C82630B7096
:101D9000C18F491EC187C18F002901D1FFF798BEAD
:101DA00070472DE9F0411D4617460E460446DDF802
:101DB000188035E0681C33D02DB1FEF7FDFBA0EB99
:101DC0000800A8422CD32068416821F0E00141605E
:101DD0006068B0F5827F0BD1A068B0F5004F02D0EB
:101DE000B0F5806F04D12068016821F040010160E6
:101DF000A06AB0F5005F0AD1206801684DF6FF7255
:101E0000114001602068016841F400510160012027
:101E100084F85100002084F850000320BDE8F081D0
:101E20002068806836EA000004D00020B842C1D1A2
:101E30000020F3E70120F9E7704710B5FEF78EFCAC
:101E4000BDE81040FFF77CB930B58FB00121080420
:101E5000CDE900100024029402250491CDE9075039
:101E60004FF4E01009906846FEF732FE00B1FEE73D
:101E70000F20CDE90A054FF48060CDE90C40022126
:101E80000AA80E94FEF71EFD00B1FEE7FEF7C4FDA2
:101E90004FF47A71B0FBF1F0FFF73EF90420FFF741
:101EA0002EF900221146501EFEF7DAFC0FB030BDAD
:101EB0000D48016841F00101016041680B4A114081
:101EC000416001680A4A11400160016821F48021E3
:101ED0000160416821F4FE0141604FF41F018160FF
:101EE0000449C00308607047001002400000FFF87A
:101EF000FFFFF6FE08ED00E0F0B50268164B174C48
:101F0000174D4FF08047984205D0B84203D0A04209
:101F100001D0A84203D122F070064A6832439842A9
:101F200005D0B84203D0A04201D0A84203D122F488
:101F30004074CA68224322F080044A692243026046
:101F40008A68C2620A688262984201D109690163A3
:101F500001214161F0BD0000002C0140000400405F
:101F60000008004010B50123046A8B409C430462C2
:101F7000036A8A401343036210BD000030B5026A51
:101F800022F001020262026A4368846924F0730548
:101F90000C682C4322F002058A682A430A4DA842A5
:101FA0000BD122F00805CA6823F440732A434D6917
:101FB00022F004021D438B692B434360846149680E
:101FC0004163026230BD0000002C014030B5026A5E
:101FD00022F010020262026A436884690D6824F4E8
:101FE000E64444EA05248D6822F0200242EA051204
:101FF0000B4DA8420ED1CD6822F0800242EA0512B4
:102000004D6923F4406343EA85038D6922F0400261
:1020100043EA85034360846149688163026230BD9D
:10202000002C014030B5026A22F480720262036A19
:102030004268C46923F4007324F073050C682C43D0
:102040008D6843EA05230C4DA8420ED1CD6823F4D8
:10205000006343EA05234D6922F4405242EA051227
:102060008D6923F4806342EA05124260C4614968C5
:10207000C163036230BD0000002C014030B5026A2C
:1020800022F480520262046A4268C3690D6823F434
:10209000E64343EA05238D6824F4005444EA0534FA
:1020A000064DA84204D14D6922F4804242EA8512CD
:1020B0004260C36149680164046230BD002C014084
:1020C0002DE9F041044600680169E26821F44051BD
:1020D000114301612169A0680843616908432168CF
:1020E000CA6841F20C639A430243CA60206841699E
:1020F000A26921F44071114341614C492068642573
:10210000322688423CD1FEF79DFC00EBC00101EB7A
:10211000001061688900B0FBF1F7FEF793FC00EB5B
:10212000C00101EB00106168B0468900B0FBF1F01E
:10213000B0FBF5F06FF01801484307EB800106EBA8
:102140000110B0FBF5F000F0F006FEF77BFC00EBB1
:10215000C00101EB001061688900B0FBF1F0B0FB39
:10216000F5F006EB0016FEF76DFC00EBC00101EB8D
:10217000001061688900B0FBF1F7FEF763FC3BE0FB
:10218000FEF750FC00EBC00101EB00106168890014
:10219000B0FBF1F7FEF746FC00EBC00101EB0010CD
:1021A0006168B0468900B0FBF1F0B0FBF5F06FF06C
:1021B0001801484307EB800106EB0110B0FBF5F076
:1021C00000F0F006FEF72EFC00EBC00101EB001062
:1021D00061688900B0FBF1F0B0FBF5F006EB00168A
:1021E000FEF720FC00EBC00101EB001061688900E4
:1021F000B0FBF1F7FEF716FC00EBC00101EB00109D
:1022000061688900B0FBF1F0B0FBF5F06FF01801E8
:10221000484307EB800108EB0110B0FBF5F02168A3
:1022200000F00F0030448860BDE8F08100380140C4
:10223000FEE7FEE76022C0E9002100218160016124
:10224000704770B504460D46D4E90001FFF7CAF89F
:10225000D4E900022946FEF7FDFFD4E90001BDE8FC
:102260007040FFF7A7B802E008C8121F08C1002A93
:10227000FAD170477047002001E001C1121F002A07
:10228000FBD1704770B514460D46064600F092F932
:102290004CB1012C0FD1304600F016F92846BDE8AC
:1022A000704000F05FB9304600F042F92846BDE8C2
:1022B000704000F023B970BD70B516460C46054657
:1022C00000F078F92BB2181B04B222480088D0B174
:1022D0005842844200DA04B29C4200DD1C461E498A
:1022E000181B098832394843642190FBF1F02844D7
:1022F00080B2B0F5FA6F04D804F5FA61B1F57A6FDF
:1023000005D9AFF30080002CE6DA0024E4E756B1EB
:10231000012E1DD100F0D8F8002C13DDA0B2BDE8CD
:10232000704000F005B900F003F9002C04DDA0B204
:10233000BDE8704000F0C8B86042BDE8704080B2AF
:1023400000F0DCB86042BDE8704080B200F00AB92D
:1023500070BD00000200002004000020FEF706FA15
:1023600000F034F8FFF770FDFFF7F0F8FFF72EF9F3
:10237000FFF756F9FFF77EF9FFF7F0F9FFF734FAA8
:10238000FFF790FAFFF7B4FA04210C48FFF712F8B0
:1023900008210A48FFF70EF804210948FFF70AF858
:1023A00008210748FFF706F8052206490648FEF708
:1023B000F7FD05210348FFF7BBFBFAE7CC0000203F
:1023C0004C01002008000020740000200648002175
:1023D0004FF0804201604160C0E9021201614FF09C
:1023E0007E514161704700002802002070B50C4604
:1023F000054600F0DFF8012C09D0002C0FD128464B
:1024000000F0B0F82846BDE8704000F05DB82846FE
:1024100000F074F82846BDE8704000F089B870BD3F
:1024200070B505461148124C2946008868B1E0682D
:1024300000F0B2F82946606900F0AEF829466068FD
:1024400000F0AAF82946E0690CE0A06800F0A4F8C2
:102450002946206900F0A0F82946206800F09CF881
:10246000A0692946BDE8704000F096B8060000203B
:10247000F026000870B505461148124C2946008820
:1024800068B1A06800F088F82946206900F084F857
:102490002946206800F080F82946A0690CE0E06831
:1024A00000F07AF82946606900F076F829466068FD
:1024B00000F072F8E0692946BDE8704000F06CB8A1
:1024C00006000020F026000870B5054609480A4CB1
:1024D0002946008828B1E06800F05EF82946606867
:1024E00004E0A06900F058F820692946BDE8704072
:1024F00000F052B806000020F026000870B505462E
:1025000009480A4C2946008828B1206800F044F8A0
:102510002946A06804E0606900F03EF8E0692946B9
:10252000BDE8704000F038B806000020F026000832
:1025300070B5054609480A4C2946008828B16069EB
:1025400000F02AF82946E06904E0206800F024F849
:10255000A0682946BDE8704000F01EB806000020C3
:10256000F026000870B5054609480A4C294600883F
:1025700028B1A06900F010F82946206904E0E0685D
:1025800000F00AF860682946BDE8704000F004B821
:1025900006000020F026000810B503460448FFF7A7
:1025A00049FEBDE8104002491846FFF74ABE000048
:1025B0000C02002010B5114C206803C8FEF712FF72
:1025C000A06803C8FEF70EFF206903C8FEF70AFFE4
:1025D000A06903C8FEF706FF606803C8FEF702FFA4
:1025E000E06803C8FEF7FEFE606903C8FEF7FAFE66
:1025F000E06903C8BDE81040FEF7F4BEF02600080D
:102600002DE9F0411F4C07462068FDF721FE616966
:10261000FDF7E0FD06466068FDF71AFE2169FDF74B
:10262000D9FD05463846FDF713FEE168FDF7D2FDFA
:102630002946FDF777FD3146FDF7C6FDFDF716FE8D
:10264000A060FFF7B7FFA0684FF47A610E4B884295
:1026500001DDA16001E0002803DD2089012281B2B3
:1026600003E0404281B20022A0601888FFF724FEF8
:10267000276060680A2190FBF1F1401A38446060DD
:10268000BDE8F081280200200000002010B5064CB3
:10269000064BA04200D0D860A14200D01961A242EE
:1026A00000D05A6110BD0000000080BF2802002049
:1026B000CC00002008000000CC0000200C0000002E
:1026C000CC00002004000000CC000020000000002E
:1026D0004C010020080000004C0100200C0000000C
:1026E0004C010020040000004C010020000000000C
:1026F000B0260008B8260008C0260008C826000832
:10270000D0260008D8260008E0260008E8260008A1
:102710000000000000000000010203040607080991
:102720000000000001020304482700080000002008
:102730002000000066220008682700082000002012
:102740002006000076220008000000003200010090
:102750000000000000000000010000001000000068
:082760000000000000A24A0481
:04000005080000ED02
:00000001FF
