:020000040800F2
:10000000C006002001010008DF180008E9140008FC
:10001000DD18000849010008451E00080000000026
:100020000000000000000000000000004B1A000863
:100030004B01000800000000011900084D1A0008DB
:100040001B0100081B0100081B0100081B01000820
:100050001B0100081B0100081B0100081B01000810
:100060001B0100081B0100081B0100081B01000800
:100070001B0100081B0100081B0100081B010008F0
:100080001B0100081B0100081B0100081B010008E0
:100090001B0100081B0100081B0100081B010008D0
:1000A0001B0100081B0100081B0100081B010008C0
:1000B0001B0100081B0100081B0100081B010008B0
:1000C0001B0100081B0100081B0100081B010008A0
:1000D0001B0100081B0100081B0100081B01000890
:1000E0001B0100081B0100081B010008DFF80CD0F1
:1000F00000F018F800480047C11E0008C0060020A4
:100100000648804706480047FEE7FEE7FEE7FEE7B1
:10011000FEE7FEE7FEE7FEE7FEE7FEE7C51A00089A
:10012000ED000008064C074D06E0E06840F00103D2
:1001300094E8070098471034AC42F6D3FFF7DAFF93
:100140002021000840210008FEE7704770B50446F2
:1001500000F064F90546601C02D0044800780444AD
:1001600000F05CF9401BA042FAD370BD00000020F3
:100170002DE9F04300230F24DFF8C0C059E001222D
:100180009A400A4054D0FF2A01D8074601E000F106
:1001900004074FEA830601D9A6F12006D7F80080AC
:1001A00004FA06F54FF0040928EA050809FA06F9E9
:1001B00048EA0908C7F80080C56825EA0205C56055
:1001C00023F003056544AF684FEA83764FEA16765D
:1001D00004FA06F909EA0708194FB84201D10027C5
:1001E0000FE0184FB84201D101270AE0164FB8427C
:1001F00001D1022705E0154FB84201D1032700E0E5
:100200000427B740474513D1AF6827EA0907AF6015
:100210000F4D2E6896432E602D1D2E6896432E603E
:100220002D1D2E6896432E602D1D2E6896432E6040
:100230005B1C31FA03F2A2D1BDE8F083000001405B
:1002400000080140000C0140001001400014014072
:10025000000401402DE9F84FDFF890A100220AF1D7
:10026000040B144601274FF00F090BF1040E00BFD9
:100270000B6807FA04F52B40AB4274D1DFF870C16C
:100280004E68A6EB0C0866452BD00DDC032E34D04F
:1002900005DC36B3012E19D0022E2FD11BE0112E12
:1002A00016D0122E2AD119E0B8F5881F19D006DC15
:1002B000B8F5803F15D0B8F5801F1FD111E0B8F513
:1002C000001F0ED0B8F5041F18D10AE0CA6815E067
:1002D000CA68121D12E0CA6808320FE0CA680C3200
:1002E0000CE08A682AB1012A4FF0080203D0456168
:1002F00004E0042202E0056100E00022FF2B01D8A7
:10030000064601E000F104064FEA840501D9A5F193
:100310002005D6F800C009FA05F82CEA080C02FA04
:1003200005F54CEA050CC6F800C04D68ED0057D540
:10033000304DAE6946F00106AE61AD6924F00306AA
:1003400005F0010500952C4D06EB050CDCF8085076
:10035000A6074FEA167809FA08F6B543274EB042C9
:1003600002D1002610E03BE0254EB04201D101262B
:100370000AE0244EB04201D1022605E0224EB042EE
:1003800001D1032600E0042606FA08F62E43CCF835
:1003900008604D68DAF80060ED03554601D51E434C
:1003A00000E09E432E604D68DBF80060AD035D46C3
:1003B00001D51E4300E09E432E604D68DEF80060CC
:1003C000ED02754601D51E4300E09E432E604D6848
:1003D000AD020E4D2E6801D51E4300E09E432E60F7
:1003E000641C102CFFF444AFBDE8F88F00040140FA
:1003F0000000111000100240000001400008014000
:10040000000C014000100140001401400C040140A8
:100410000AB1016170470904FBE7000001488068E8
:10042000704700000000002070B504001BD094F855
:100430003D00002520B984F83C50204600F094F897
:10044000242084F83D002068016821F0010101604A
:1004500000F01AFA404A6168914201D83F4900E031
:100460003F49884201D2012070BD3E492368B0FB5C
:10047000F1F159606368934206D94FF4967359437A
:100480004FF47A73B1FBF3F12368491C1962616878
:10049000914210D84900401EB0FBF1F2521CC2F349
:1004A0000B02042A01D2042022E0B0FBF1F0401C30
:1004B000C0F30B001CE0A368CBB301EBC10202EB5D
:1004C0000116421EB2FBF6F2521C42F480421205A3
:1004D00036D06BB301EBC10202EB0111401EB0FB41
:1004E000F1F0401CC0F30B0040F4804040F40040A9
:1004F0002168C861D4E90701084321680860D4E98C
:100500000310084321688860D4E905010843216885
:10051000C8602068016841F0010101602564202065
:1005200084F83D00256384F83E50002070BD00E053
:1005300008E001EB4106421EB2FBF6F2521CC6E790
:100540000120D5E701EB4101401EB0FBF1F0401C5A
:10055000C0F30B00CAE70000A086010080841E00E3
:1005600000093D0040420F0000B50068104985B009
:1005700088421AD14FF4407000901220019003205D
:10058000039069460B48FFF765FE0B48416841F050
:10059000E06141F0020141600848C16941F4001185
:1005A000C161C06900F40010049005B000BD0000F6
:1005B00000540040000C01400000014000100240C7
:1005C0000248816802781144816070470000002071
:1005D000074810B5016841F010010160032000F0E8
:1005E00091F8002000F006F800F024F8002010BD7B
:1005F0000020024070B50D4D04464FF47A71287802
:10060000B1FBF0F00A490968B1FBF0F000F055FDCC
:1006100048B9102C07D200222146501E00F052F893
:1006200000206C6070BD012070BD00000000002043
:100630000C000020214808B5816941F00101816169
:10064000816901F001010091C16941F08051C161EE
:10065000C06900F080500090032000F053F80022A1
:1006600011466FF00B0000F02DF8002211466FF0DC
:100670000A0000F027F8002211466FF0090000F090
:1006800021F800221146501F00F01CF800221146EC
:10069000101F00F017F800221146901E00F012F80B
:1006A00000221146501E00F00DF80548416821F067
:1006B000E06141F00071416008BD0000001002409F
:1006C00000000140F0B40E4B1B680C46C3F302233C
:1006D000C3F10705042D00D90425191D072901D2EE
:1006E000002300E0DB1E012606FA05F1491E214029
:1006F00099409E40761E16403143F0BC01F0F0B8A0
:100700000CED00E0064900F0070208684FF6FF0311
:10071000184040EA0220034A104308607047000076
:100720000CED00E00000FA052DE9F047DFF83C8110
:1007300005460E46D8F8000000F00700B0420CD283
:10074000D8F8001021F007013143C8F80010D8F89C
:10075000000000F00700B04263D12878444C8007C5
:1007600005D56068A96820F0F0000843606028782B
:10077000C00745D06868012816D02168022816D025
:10078000890700294DDA616821F0030101436160A6
:10079000FFF744FE6968074641F2883001290FD00F
:1007A0000229814619D027E021688903E9E78901F8
:1007B000E7E700BFFFF732FEC11B494501D918E04A
:1007C00081466068C0F381000128F3D118E000BFC2
:1007D000FFF724FEC11B49450BD86068C0F38100B8
:1007E0000228F5D10CE000BFFFF718FEC11B4945F8
:1007F00002D90320BDE8F087606810F00C0FF3D138
:10080000D8F80010404601F00701B1420BD9016849
:1008100021F0070131430160006800F00700B04299
:1008200001D00120E6E72878400705D56068E9682F
:1008300020F4E060084360602878000706D560680F
:10084000296920F4605040EAC100606000F03CF883
:100850006168084AC1F30311515CC8400649086049
:100860000020FFF7C7FE0020C4E700000020024080
:1008700000100240082100080C0000200148006818
:10088000704700000C0000200448054900684968D2
:10089000044AC1F30221515CC84070470C0000209B
:1008A0000010024018210008044805490068496802
:1008B000044AC1F3C221515CC84070470C000020BB
:1008C000001002401821000812A185B00FC98DE860
:1008D0000F0014A0144A006804905168134801F0F6
:1008E0000C03042B10D0082B0ED1C1F38343C90392
:1008F0001DF803000AD5516804AAC1F34041515CB8
:100900000A4A5043B0FBF1F005B07047084948432C
:10091000FAE7000002030405060708090A0B0C0D9C
:100920000E0F1010010200000010024000127A00A9
:1009300000093D002DE9F84F04460078B94DC00785
:1009400048D06868C0F38100012807D06868C0F308
:100950008100022809D16868C00306D52868800391
:1009600038D5606800286FD034E06068B0F5803F0B
:100970000BD010B1B0F5A02F11D0286820F4803032
:100980002860286820F4802002E0286840F4803045
:100990002860606888B1FFF741FD064609E02868D5
:1009A00040F480202860F0E7FFF738FD801B6428C2
:1009B00075D828688003F7D50CE0FFF72FFD0646B1
:1009C00005E000BFFFF72AFD801B6428F0D82868E7
:1009D0008003F7D42078944E80074FF001094FF040
:1009E00000083BD5686810F00C0F07D06868C0F3AA
:1009F0008100022809D16868C00306D428688007EE
:100A000014D5206901281FD110E02069B0B1C6F8C3
:100A10000090FFF703FD074605E000BFFFF7FEFC6F
:100A2000C01B0228C4D828688007F7D528686169E8
:100A300020F0F80040EAC10028600FE0C6F800800E
:100A4000FFF7ECFC074606E0E9E000BFFFF7E6FC35
:100A5000C01B022823D828688007F7D42078000715
:100A60002CD57248A169D9B1C0F80090FFF7D6FC27
:100A7000074604E0FFF7D2FCC01B02280FD8686AC3
:100A80008007F7D56A484FF4FA510068B0FBF1F0DF
:100A9000009000BF0098411E0091FAD20EE080E065
:100AA000C0F80080FFF7BAFC074604E0FFF7B6FC89
:100AB000C01B022875D8686A8007F7D420784007E1
:100AC00060D5E8690027C00008D4E86940F080508C
:100AD000E861E869012700F08050009055480168FE
:100AE000C90513D40168834641F480710160FFF7A2
:100AF00095FC824606E000BFFFF790FCA0EB0A00E1
:100B000064284ED8DBF80000C005F5D5E068012860
:100B10000AD008B1052813D0286A20F00100286205
:100B2000286A20F0040002E0286A40F001002862F0
:100B3000E06841F2883B98B1FFF770FC82460BE019
:100B4000286A40F004002862EEE700BFFFF766FC69
:100B5000A0EB0A0159455AD8286A8007F6D50CE05F
:100B6000FFF75CFC824605E0FFF758FCA0EB0A01AA
:100B700059454CD8286A8007F6D41FB1E86920F09F
:100B80008050E861E06988B36968C1F38101022996
:100B900045D00228C6F8608004D0FFF73FFC044629
:100BA00038E034E0FFF73AFC074604E0FFF736FC94
:100BB000C01B02282BD828688001F7D4206AB0F522
:100BC000803F05D16868A16820F400300843686060
:100BD000D4E908010843696821F474110843686086
:100BE000C6F86090FFF71AFC044606E015E000BF67
:100BF000FFF714FC001B022809D828688001F7D5EC
:100C00000BE000BFFFF70AFC001B022802D90320FB
:100C1000BDE8F88F28688001F4D40020F8E70120AF
:100C2000F6E7000000100240000042428004424209
:100C30000C0000200070004070B5040005D00025B5
:100C4000A56294F8510010B104E0012070BD204667
:100C500000F052F8022084F851002068016821F069
:100C600040010160D4E901010843D4E903121143B2
:100C7000084361690843218B01F400710843E1696D
:100C80000843216A0843A16A084321680860A069F3
:100C9000042101EA1040616A084321684860216824
:100CA000E06A08612068C16921F40061C16165657D
:100CB000012084F85100002070BD000010B50068CC
:100CC000094988420FD10948816921F48051816125
:100CD0004FF400410648FFF74BFABDE810403821B9
:100CE0000448FFF745BA10BD003001400010024033
:100CF00000080140000C014010B50068194986B099
:100D000088422CD11848816941F480518161806901
:100D1000002400F4805004904FF40040CDE900041A
:100D2000694612480294FFF795FA2820CDE900049D
:100D300002940F4C69462046FFF78CFA1020009071
:100D4000022001900320039069462046FFF782FAB3
:100D50000848416841F0E06141F00101416006B09E
:100D600010BD0000003001400010024000080140AA
:100D7000000C0140000001402DE9F84F0446406896
:100D80000026984617460D464FF00409B0F5827FBD
:100D900001D1A06890B194F85000012819D04FF00B
:100DA000010B84F850B0FFF739FB009094F8510024
:100DB0004FF0000A01280ED002267FE084F85190FF
:100DC00013460A462046CDF8008000F07DF8BDE8C5
:100DD000F88F0220FBE7002D6FD0002F6DD084F834
:100DE0005190C4F854A0A563A787E787C4F830A042
:100DF000A4F834A0A4F836A0C4F840A0C4F844A0D5
:100E0000A0684FF40047B84204D12068016821F47B
:100E10008041016020680168490603D4016841F0FF
:100E200040010160E068B8B133E020688168C9071B
:100E300006D0007B05F8010BE08F401EE0870BE039
:100E4000B8F1000F23D0B8F1FF3F05D0FFF7E6FA65
:100E50000099411A41451AD2E08F0028E5D11BE0E4
:100E600020688168C90706D0C06825F8020BE08FAA
:100E7000401EE0870DE0B8F1000F08D0B8F1FF3F49
:100E800007D0FFF7CBFA0099411A414501D3032659
:100E900014E0E08F0028E3D16068B0F5827F0AD1CA
:100EA000A068B84202D0B0F5806F04D12068016814
:100EB00021F040010160606D00B1012684F851B05D
:100EC00084F850A0304682E72DE9F84F044690F8A8
:100ED000500000260A9F9A4693460D464FF001089F
:100EE00001280ED0012084F85000FFF797FA8146C0
:100EF00094F85100616801280CD0B1F5827F07D1C8
:100F000002E00220BDE8F88FA16809B9042801D0E9
:100F10000226BDE055B1BBF1000F07D0BAF1000FBA
:100F200004D094F85100012802D004E00126AFE07B
:100F3000052084F8510000206065C4F838B0A4F89A
:100F40003EA0A4F83CA02563A4F836A0A4F834A0E1
:100F50002064606420680168490603D4016841F098
:100F600040010160E068B0F5006F606804D0E8B34C
:100F7000E08E01283BD06AE010B1E08E01282ED12E
:100F8000216835F8020BC860E08E401EE08626E03E
:100F9000B8F1000F0DD0E08E58B120688168890744
:100FA00007D535F8021BC160E08E401EE0864FF089
:100FB0000008E08F58B120688168C90707D0C06871
:100FC0002BF8020BE08F401EE0874FF00108781CE1
:100FD00005D0FFF723FAA0EB0900B84246D2E08E15
:100FE0000028D5D1E08F0028D2D136E0FFE7216874
:100FF00015F8010B0873E08E401EE08627E000BF65
:10100000B8F1000F0DD0E08E58B1206881688907D3
:1010100007D515F8011B0173E08E401EE0864FF0E6
:101020000008E08F58B120688168C90707D0C06800
:101030000BF8010BE08F401EE0874FF00108781C91
:1010400005D0FFF7EBF9A0EB0900B8420ED2E08E15
:101050000028D5D1E08F0028D2D13B4601220221C1
:101060002046CDF8009000F0A5FC08B103260FE063
:101070004A463946204600F044FC18B1012620209B
:10108000606505E0A06818B92068C16880680090B4
:10109000012084F85100002084F85000304631E7E8
:1010A0004FF0E0210428086903D020F00400086113
:1010B000704740F00400FAE7704710B5401EB0F1E9
:1010C000807F01D3012010BD4FF0E02460610F212B
:1010D000601700F005FC0020A061072020610020BF
:1010E00010BD10B5FFF7E8FF10BD10B590F83C201B
:1010F000012A25D0012280F83C20CA688C6822F49D
:10110000407222434C6822F4806222430C6822F42D
:10111000006222430C6922F4805222434C6922F47B
:10112000005222438C6922F48042224322F400417F
:10113000026800232143516480F83C30002010BD38
:10114000022010BD30B590F83C20012A20D00122A9
:1011500080F83C20022380F83D3003685C6824F06E
:1011600070045C6003685C680D682C435C60036815
:101170009C6824F080049C6003689C6849680C4368
:101180009C6080F83D20002180F83C10084630BD6E
:10119000022030BD7FB5134A0168022412489142F3
:1011A00004D14FF47061CDE9001415E00325B1F1CD
:1011B000804F0FD00D4A914212D1C021CDE90014C9
:1011C00069460394FFF746F8CDE90054694608489C
:1011D000039403E0CDE9005469460394FFF73AF81D
:1011E0007FBD0000002C01400008014000040040C9
:1011F000000C014070B5044690F83C000D460128F3
:101200000DD0012684F83C60022084F83D0042B1F4
:10121000042A18D0082A2AD00C2A4DD139E00220FD
:1012200070BD206800F0B4FC2068816941F00801BD
:1012300081612068816921F00401816120688169F0
:101240002A69114311E0206800F0CAFC2068816916
:1012500041F4006181612068816921F480618161CC
:10126000206881692A6941EA0221816124E02068BD
:1012700000F0E2FC2068C16941F00801C16120680A
:10128000C16921F00401C1612068C1692A69114363
:1012900011E0206800F0FCFC2068C16941F40061A5
:1012A000C1612068C16921F48061C1612068C169A0
:1012B0002A6941EA0221C16184F83D60002084F876
:1012C0003C0070BD10B5040003D094F83D0010B18F
:1012D00007E0012010BD002084F83C00204600F00B
:1012E0000DF8022084F83D00211D206800F00EFC5E
:1012F000012084F83D00002010BD000008B5124A0E
:1013000001681248914207D1816941F4006181610D
:10131000806900F4006014E0B1F1804F0AD00C4AFB
:1013200091420FD1C16941F00201C161C06900F071
:10133000020006E0C16941F00101C161C06900F02D
:101340000100009008BD0000002C01400010024088
:101350000004004010B504460068012200F00CFCB7
:1013600007492068884203D1416C41F4004141643F
:101370002068016841F001010160002010BD0000FB
:10138000002C014010B504460068002200F0F4FB78
:10139000104B41F2111120688A10984209D1036A5A
:1013A0000B4206D1036A134203D1436C23F400437A
:1013B00043642068036A0B4206D1016A114203D1DB
:1013C000016821F001010160012084F83D00002046
:1013D00010BD0000002C014070B5040004D094F84A
:1013E0003900002510B106E0012070BD84F83850A6
:1013F000204600F023F8242084F839002068C168D2
:1014000021F40051C160204600F064FC20680169AD
:1014100021F4904101612068416921F02A01416174
:101420002068C16841F40051C160E563202084F860
:10143000390084F83A00002070BD000030B5244D1A
:101440000368002423480221032285B0AB4221D146
:10145000836943F48043836180691F4D00F48040B9
:1014600004904020CDE90001039269462846FEF72A
:10147000F1FE8020CDE90004694628460294FEF77B
:10148000E9FE1648416841F0E06141F00401416025
:1014900005B030BD124DAB42FAD1C36943F40033FD
:1014A000C361C0690F4D00F4003004900420CDE901
:1014B0000001039269462846FEF7CCFE0820CDE9DC
:1014C0000004694628460294FEF7C4FEE0E70000E7
:1014D0000038014000100240000C014000000140B3
:1014E0000044004000080140FEE7000030B51C4801
:1014F00085B0816941F020018161816901F020019D
:101500000491816941F004018161816901F0040164
:101510000491816941F0080181618069114D00F0F9
:1015200008004FF440640490002221462846FEF74C
:101530006FFF0120CDE9004000240220CDE90240E8
:1015400069462846FEF786FE4FF470400090064834
:10155000CDE9010469462846FEF77CFE05B030BDA2
:1015600000100240000C0140000011100E4810B5A0
:101570000C4901600D49416000214FF480428160B7
:10158000C0E9031241618161C1610162FEF74CFF54
:10159000002805D0BDE81040422105A000F053BC52
:1015A00010BD00000054004010000020A086010083
:1015B0002E2E2F5372632F6932632E6300000000BA
:1015C0000F4810B50D490160002141608160C16084
:1015D000016120224161C0E906120162416281621B
:1015E0000A21C162FFF728FB002805D0BDE81040A2
:1015F000452104A000F027BC10BD000000300140D0
:10160000640000202E2E2F5372632F7370692E6397
:101610000000000010B5344890B032490160472105
:101620000024C0E9011440F2CF71C0E90314446101
:101630008461FFF747FE18B143212CA000F003FCA2
:101640000E940EA928480F94FFF77CFD18B14A218B
:1016500026A000F0F8FB6020CDE90004029403947A
:1016600004940594002269461F480694FFF7C2FDC2
:1016700018B156211DA000F0E6FB042269461A4865
:10168000FFF7B8FD18B15B2118A000F0DCFB0822C1
:1016900069461548FFF7AEFD18B1602113A000F0B0
:1016A000D2FB0C2269461048FFF7A4FD18B1652152
:1016B0000EA000F0C8FB0794089409944FF4005062
:1016C0000A94CDE90B4007A907480D94FFF70DFDDB
:1016D00018B1712105A000F0B6FB0348FFF75AFDD1
:1016E00010B010BD002C0140BC0000202E2E2F5346
:1016F00072632F74696D2E630000000010B51D48E1
:101700008AB04FF080410024C0E900148460C460B6
:1017100004618461FFF7D6FD18B1852116A000F0A1
:1017200092FB079407A913480894FFF70BFD18B123
:101730008C2111A000F087FB6020CDE90004029409
:10174000002269460B480494FFF754FD18B1952117
:1017500009A000F078FB042269460648FFF74AFD1D
:1017600018B19A2104A000F06EFB0248FFF712FDA9
:101770000AB010BDFC0000202E2E2F5372632F7470
:10178000696D2E630000000010B529488AB0274912
:10179000016047210024C0E9011440F2CF71C0E983
:1017A00003148461FFF78EFD18B1AE2121A000F073
:1017B0004AFB079407A91E480894FFF7C3FC18B119
:1017C000B5211CA000F03FFB6020CDE9000402948D
:1017D0000022694616480494FFF70CFD18B1BE219B
:1017E00014A000F030FB042269461148FFF702FD07
:1017F00018B1C3210FA000F026FB082269460C484F
:10180000FFF7F8FC18B1C8210AA000F01CFB0C225D
:1018100069460748FFF7EEFC18B1CD2105A000F09E
:1018200012FB0348FFF7B6FC0AB010BD00040040ED
:101830003C0100202E2E2F5372632F74696D2E638E
:10184000000000000D4810B50B4901604FF4E13174
:101850004160002181600C22C160C0E904128161F5
:10186000C161FFF7B9FD002805D0BDE81040432154
:1018700003A000F0E8BA10BD003801407C01002050
:101880002E2E2F5372632F75736172742E630000B6
:101890000D4810B50B4901604FF4E1314160002162
:1018A00081600C22C160C0E904128161C161FFF74F
:1018B00093FD002805D0BDE81040562103A000F09C
:1018C000C2BA10BD00440040BC0100202E2E2F5390
:1018D00072632F75736172742E630000FEE77047A8
:1018E0000907090E002806DA00F00F0000F1E020D9
:1018F00080F8141D704700F1E02080F80014704754
:10190000704738B50B46009204460022802100F053
:1019100051F8002804D0606D40F02000606503207D
:1019200038BD00007CB50020009001901F48FFF7F3
:10193000E3F901221E4D940221462846FEF768FD78
:101940006423052269461948FFF716FA0028F7D1E3
:10195000002221462846FEF75BFD9DF800104FF45B
:1019600016725000653907291CD2DFE801F004081F
:101970000B0F11161800104600F0E8FA12E000F004
:101980006DFB0FE0104600F0FDFA0BE0002200E0D6
:101990000122002100F080FA04E0012100E0002192
:1019A00000F0BEFA0148FFF789F97CBD6400002011
:1019B000000C01402DE9F0411D4617460E46044635
:1019C000DDF8188035E0681C33D02DB1FEF726FD18
:1019D000A0EB0800A8422CD32068416821F0E00168
:1019E00041606068B0F5827F0BD1A068B0F5004F10
:1019F00002D0B0F5806F04D12068016821F0400169
:101A00000160A06AB0F5005F0AD1206801684DF658
:101A1000FF72114001602068016841F400510160CB
:101A2000012084F85100002084F850000320BDE814
:101A3000F0812068806836EA000004D00020B842B7
:101A4000C1D10020F3E70120F9E7704710B5FEF798
:101A5000B7FDBDE81040FFF744BB30B58FB00121A2
:101A60000804CDE900100024029402250491CDE978
:101A700007504FF4E01009906846FEF75BFF00B195
:101A8000FEE70F20CDE90A054FF48060CDE90C4058
:101A900002210AA80E94FEF747FE00B1FEE7FEF70A
:101AA000EDFE4FF47A71B0FBF1F0FFF706FB042076
:101AB000FFF7F6FA00221146501EFEF703FE0FB0A4
:101AC00030BD00000D48016841F00101016041682E
:101AD0000B4A1140416001680A4A114001600168E7
:101AE00021F480210160416821F4FE0141604FF43E
:101AF0001F0181600449C003086070470010024064
:101B00000000FFF8FFFFF6FE08ED00E0F0B5026808
:101B1000164B174C174D4FF08047984205D0B842EE
:101B200003D0A04201D0A84203D122F070064A6837
:101B30003243984205D0B84203D0A04201D0A84217
:101B400003D122F44074CA68224322F080044A6917
:101B5000224302608A68C2620A688262984201D1A6
:101B60000969016301214161F0BD0000002C0140C1
:101B7000000400400008004010B50123046A8B40B7
:101B80009C430462036A8A401343036210BD000051
:101B900030B5026A22F001020262026A4368846977
:101BA00024F073050C682C4322F002058A682A434E
:101BB0000A4DA8420BD122F00805CA6823F44073ED
:101BC0002A434D6922F004021D438B692B43436075
:101BD000846149684163026230BD0000002C01400D
:101BE00030B5026A22F010020262026A4368846918
:101BF0000D6824F4E64444EA05248D6822F02002AE
:101C000042EA05120B4DA8420ED1CD6822F08002A7
:101C100042EA05124D6923F4406343EA85038D6966
:101C200022F0400243EA850343608461496881638E
:101C3000026230BD002C014030B5026A22F480728D
:101C40000262036A4268C46923F4007324F07305D6
:101C50000C682C438D6843EA05230C4DA8420ED135
:101C6000CD6823F4006343EA05234D6922F4405212
:101C700042EA05128D6923F4806342EA051242604C
:101C8000C4614968C163036230BD0000002C01409B
:101C900030B5026A22F480520262046A4268C36963
:101CA0000D6823F4E64343EA05238D6824F40054C9
:101CB00044EA0534064DA84204D14D6922F480421D
:101CC00042EA85124260C36149680164046230BD22
:101CD000002C01402DE9F041044600680169E268EA
:101CE00021F44051114301612169A06808436169F1
:101CF00008432168CA6841F20C639A430243CA60F0
:101D000020684169A26921F44071114341614C4945
:101D100020686425322688423CD1FEF7C5FD00EBE1
:101D2000C00101EB001061688900B0FBF1F7FEF71C
:101D3000BBFD00EBC00101EB00106168B0468900FB
:101D4000B0FBF1F0B0FBF5F06FF01801484307EB82
:101D5000800106EB0110B0FBF5F000F0F006FEF795
:101D6000A3FD00EBC00101EB001061688900B0FB2E
:101D7000F1F0B0FBF5F006EB0016FEF795FD00EB79
:101D8000C00101EB001061688900B0FBF1F7FEF7BC
:101D90008BFD3BE0FEF778FD00EBC00101EB00108E
:101DA00061688900B0FBF1F7FEF76EFD00EBC00142
:101DB00001EB00106168B0468900B0FBF1F0B0FBA8
:101DC000F5F06FF01801484307EB800106EB0110B6
:101DD000B0FBF5F000F0F006FEF756FD00EBC00199
:101DE00001EB001061688900B0FBF1F0B0FBF5F089
:101DF00006EB0016FEF748FD00EBC00101EB0010FA
:101E000061688900B0FBF1F7FEF73EFD00EBC00111
:101E100001EB001061688900B0FBF1F0B0FBF5F058
:101E20006FF01801484307EB800108EB0110B0FB8D
:101E3000F5F0216800F00F0030448860BDE8F081C3
:101E400000380140FEE7FEE76022C0E900210021E2
:101E500081600161704770B504460D46D4E9000108
:101E6000FFF790FAD4E900022946FFF7C3F9D4E955
:101E70000001BDE87040FFF76DBA02E008C8121F0C
:101E800008C1002AFAD170477047002001E001C163
:101E9000121F002AFBD1704710B50C4642B1012A2F
:101EA0000DD100F08BF82046BDE8104000F0C2B81C
:101EB00000F0ACF82046BDE8104000F093B810BD2B
:101EC000FEF786FBFFF7C9FDFFF710FBFFF74EFBA0
:101ED000FFF776FBFFF79EFBFFF710FCFFF754FCC4
:101EE000FFF7B0FCFFF7D4FC04210B48FFF732FAF0
:101EF00008210948FFF72EFA04210848FFF72AFABB
:101F000008210648FFF726FA40F6B834FFF70AFD25
:101F10002046FEF71BF9F9E7BC0000203C01002039
:101F200010B50446012908D000290DD100F082F82F
:101F30002046BDE8104000F041B800F067F82046A8
:101F4000BDE8104000F04EB810BD000010B50146CD
:101F50000A48FFF779FF0A4C0849A068FFF77BFFA2
:101F600006492069FFF777FF04492068FFF773FFF0
:101F7000A069BDE810400149FFF76DBF880200204D
:101F8000E820000810B501460A48FFF75DFF0A4C3B
:101F90000849E068FFF75FFF06496069FFF75BFFEC
:101FA00004496068FFF757FFE069BDE81040014948
:101FB000FFF751BFA4020020E820000810B5014639
:101FC0000648FFF741FF064C04492069FFF743FF2D
:101FD000A069BDE810400149FFF73DBF180200208D
:101FE000E820000810B501460648FFF72DFF064C13
:101FF00004496069FFF72FFFE069BDE8104001491F
:10200000FFF729BF50020020E820000810B5014664
:102010000648FFF719FF064C0449A068FFF71BFFAD
:102020002068BDE810400149FFF715BF34020020C9
:10203000E820000810B501460648FFF705FF064CEA
:102040000449E068FFF707FF6068BDE810400149F8
:10205000FFF701BF6C020020E820000810B5114C0A
:10206000206803C8FFF78EF9A06803C8FFF78AF954
:10207000206903C8FFF786F9A06903C8FFF782F952
:10208000606803C8FFF77EF9E06803C8FFF77AF9D4
:10209000606903C8FFF776F9E06903C8BDE810403E
:1020A000FFF770B9E8200008BC000020080000001D
:1020B000BC0000200C000000BC0000200400000058
:1020C000BC000020000000003C01002008000000CF
:1020D0003C0100200C0000003C0100200400000036
:1020E0003C01002000000000A8200008B0200008EB
:1020F000B8200008C0200008C8200008D020000830
:10210000D8200008E02000080000000000000000C7
:10211000010203040607080900000000010203048D
:102120004021000800000020100000007A1E000876
:102130005021000810000020B00600008A1E000890
:1021400001000000100000000000000000A24A048E
:04000005080000ED02
:00000001FF
