:020000040800F2
:100000001806002001010008A7190008B115000812
:10001000A5190008BD0300086D21000800000000BC
:10002000000000000000000000000000751D000836
:10003000BF03000800000000C9190008771D000870
:100040001B0100081B0100081B0100081B01000820
:100050001B0100081B0100081B0100081B01000810
:100060001B0100081B0100081B0100081B01000800
:100070001B0100081B0100081B0100081B010008F0
:100080001B0100081B0100081B0100081B010008E0
:100090001B0100081B0100081B0100081B010008D0
:1000A0001B0100081B0100081B0100081B010008C0
:1000B0001B0100081B0100081B0100081B010008B0
:1000C0001B0100081B0100081B0100081B010008A0
:1000D0001B0100081B0100081B0100081B01000890
:1000E0001B0100081B0100081B010008DFF80CD0F1
:1000F00000F052F9004800471922000818060020B5
:100100000648804706480047FEE7FEE7FEE7FEE7B1
:10011000FEE7FEE7FEE7FEE7FEE7FEE7ED1D00086F
:10012000ED000008F0B480EA0102D40F4200B2EB07
:10013000410F02D20246084611464A0042D0C30D82
:10014000DDB2C1F3C752AD1A202D35DAC1F3160165
:1001500041F4000204B15242C5F1200602FA06F150
:100160002A411044B3EBD05F23D0C4B1012DA0EBE2
:10017000C35009DCF0BC4FF0004202EAC352DBB2CC
:1001800000F5000000F0DAB8400000F1807000EBEC
:10019000C350A0F1807040EAD170490009E04908DD
:1001A00041EAC071A0EBC35000F50000400800EB2D
:1001B000C350F0BC00F0B9B86142012202EB41012A
:1001C000001BF6E7F0BC704781F00041AAE780F021
:1001D0000040A7E780EA010210B502F000434000AA
:1001E00022D04A001FD0010E01EB1261C0F356006D
:1001F000C2F3560240F4000042F40002A0FB0220C9
:1002000000047F39140400D0401C50EA124001D48D
:100210004000491EC2B20C0604EBD010401C40083E
:10022000802A02D003E0002010BD20F00100002948
:1002300000DA0020184310BD30B480EA010202F059
:10024000004530F0004221F0004013D090B1C30DC2
:10025000D40DC2F31601C0F31600E41A41F40001F4
:1002600040F400027D34914201D3641C00E0490057
:10027000002C02DA30BC002070474FF4000000234D
:10028000914201D3891A034340084FEA4101F7D153
:1002900051B1914202D14FF0004105E002D24FF03E
:1002A000010101E06FF0010103EBC450284430BCB0
:1002B00000F03BB8C10F80EAE0700844CA079623FB
:1002C000002100F03BB896230022114600F036B81A
:1002D00000F0004220F00040C10DC0F3160040F4D1
:1002E00000007F2901DA00207047962903DCC1F164
:1002F0009601C84001E096398840002AF4D0404277
:10030000704720F00040C10DC0F3160040F400001B
:100310007F2901DA00207047962903DCC1F196019C
:10032000C84070479639884070470029A8BF704779
:10033000401C490008BF20F00100704710B4B0FA1B
:1003400080FC00FA0CF050EA010404BF10BC7047B6
:1003500049B1CCF1200421FA04F411FA0CF118BFD0
:10036000012121430843A3EB0C01CB1D4FEA00619F
:100370004FEA102042BF002010BC704700EBC35072
:1003800010440029A4BF10BC7047401C490008BF9E
:1003900020F0010010BC7047064C074D06E0E068F5
:1003A00040F0010394E8070098471034AC42F6D3BC
:1003B000FFF7A0FE3425000854250008FEE770472B
:1003C00010B590F821100024022903D00421816384
:1003D00001243DE001680A6822F00E020A6001680B
:1003E0000A6822F001020A601A4A0168914201D1AA
:1003F000012121E0174A1432914201D110211BE062
:10040000144A2832914201D1891515E0114A3C3233
:10041000914201D189140FE00E4A5032914202D12B
:100420004FF4803108E00B4A6432914202D14FF41C
:10043000801101E04FF08071064A083A51600121B5
:1004400080F82110002180F82010416B01B188470D
:10045000204610BD080002402DE9F84FDFF890A1BA
:1004600000220AF1040B144601274FF00F090BF18B
:10047000040E00BF0B6807FA04F52B40AB4274D1A1
:10048000DFF870C14E68A6EB0C0866452BD00DDC7A
:10049000032E34D005DC36B3012E19D0022E2FD115
:1004A0001BE0112E16D0122E2AD119E0B8F5881FA4
:1004B00019D006DCB8F5803F15D0B8F5801F1FD1E4
:1004C00011E0B8F5001F0ED0B8F5041F18D10AE0EE
:1004D000CA6815E0CA68121D12E0CA6808320FE047
:1004E000CA680C320CE08A682AB1012A4FF008026F
:1004F00003D0456104E0042202E0056100E000222F
:10050000FF2B01D8064601E000F104064FEA8405FE
:1005100001D9A5F12005D6F800C009FA05F82CEAA2
:10052000080C02FA05F54CEA050CC6F800C04D6847
:10053000ED0057D5304DAE6946F00106AE61AD69AC
:1005400024F0030605F0010500952C4D06EB050C83
:10055000DCF80850A6074FEA167809FA08F6B54302
:10056000274EB04202D1002610E03BE0254EB042BB
:1005700001D101260AE0244EB04201D1022605E055
:10058000224EB04201D1032600E0042606FA08F606
:100590002E43CCF808604D68DAF80060ED0355464C
:1005A00001D51E4300E09E432E604D68DBF80060DD
:1005B000AD035D4601D51E4300E09E432E604D68AD
:1005C000DEF80060ED02754601D51E4300E09E4353
:1005D0002E604D68AD020E4D2E6801D51E4300E021
:1005E0009E432E60641C102CFFF444AFBDE8F88FCE
:1005F0000004014000001110001002400000014002
:1006000000080140000C01400010014000140140AE
:100610000C0401400AB1016170470904FBE70000C6
:1006200001488068704700000800002070B5040091
:100630001BD094F83D00002520B984F83C5020469A
:1006400000F094F8242084F83D002068016821F02F
:100650000101016000F01AFA404A6168914201D834
:100660003F4900E03F49884201D2012070BD3E4928
:100670002368B0FBF1F159606368934206D94FF4E7
:10068000967359434FF47A73B1FBF3F12368491C15
:1006900019626168914210D84900401EB0FBF1F226
:1006A000521CC2F30B02042A01D2042022E0B0FB48
:1006B000F1F0401CC0F30B001CE0A368CBB301EBCE
:1006C000C10202EB0116421EB2FBF6F2521C42F4CA
:1006D0008042120536D06BB301EBC10202EB01116F
:1006E000401EB0FBF1F0401CC0F30B0040F4804012
:1006F00040F400402168C861D4E90701084321683B
:100700000860D4E90310084321688860D4E9050132
:1007100008432168C8602068016841F00101016058
:100720002564202084F83D00256384F83E50002095
:1007300070BD00E008E001EB4106421EB2FBF6F29C
:10074000521CC6E70120D5E701EB4101401EB0FB7A
:10075000F1F0401CC0F30B00CAE70000A0860100C6
:1007600080841E0000093D0040420F0000B5006873
:10077000104985B088421AD14FF440700090122081
:1007800001900320039069460B48FFF765FE0B4874
:10079000416841F0E06141F0020141600848C169EF
:1007A00041F40011C161C06900F40010049005B06B
:1007B00000BD000000540040000C0140000001405A
:1007C000001002400248816802781144816070473D
:1007D00008000020074810B5016841F010010160D1
:1007E000032000F091F8002000F006F800F024F853
:1007F000002010BD0020024070B50D4D04464FF49E
:100800007A712878B1FBF0F00A490968B1FBF0F081
:1008100000F0B6FC48B9102C07D200222146501E29
:1008200000F052F800206C6070BD012070BD000027
:100830000800002014000020214808B5816941F01B
:1008400001018161816901F001010091C16941F0FB
:100850008051C161C06900F080500090032000F019
:1008600053F8002211466FF00B0000F02DF8002223
:1008700011466FF00A0000F027F8002211466FF0D1
:10088000090000F021F800221146501F00F01CF86A
:1008900000221146101F00F017F800221146901E8A
:1008A00000F012F800221146501E00F00DF8054825
:1008B000416821F0E06141F00071416008BD000035
:1008C0000010024000000140F0B40E4B1B680C46C3
:1008D000C3F30223C3F10705042D00D90425191D14
:1008E000072901D2002300E0DB1E012606FA05F1EC
:1008F000491E214099409E40761E16403143F0BC6F
:1009000001F052B80CED00E0064900F0070208685B
:100910004FF6FF03184040EA0220034A10430860E4
:10092000704700000CED00E00000FA052DE9F047EB
:10093000DFF83C8105460E46D8F8000000F00700BD
:10094000B0420CD2D8F8001021F007013143C8F8AA
:100950000010D8F8000000F00700B04263D12878FA
:10096000444C800705D56068A96820F0F000084372
:1009700060602878C00745D06868012816D02168D3
:10098000022816D0890700294DDA616821F0030199
:1009900001436160FFF744FE6968074641F2883011
:1009A00001290FD00229814619D027E02168890347
:1009B000E9E78901E7E700BFFFF732FEC11B4945C0
:1009C00001D918E081466068C0F381000128F3D1A5
:1009D00018E000BFFFF724FEC11B49450BD8606833
:1009E000C0F381000228F5D10CE000BFFFF718FE2C
:1009F000C11B494502D90320BDE8F087606810F0AB
:100A00000C0FF3D1D8F80010404601F00701B142B5
:100A10000BD9016821F0070131430160006800F043
:100A20000700B04201D00120E6E72878400705D54D
:100A30006068E96820F4E060084360602878000797
:100A400006D56068296920F4605040EAC100606002
:100A500000F03CF86168084AC1F30311515CC840DA
:100A6000064908600020FFF7C7FE0020C4E7000029
:100A700000200240001002401C2500081400002045
:100A80000148006870470000140000200448054930
:100A900000684968044AC1F30221515CC8407047AC
:100AA00014000020001002402C25000804480549CD
:100AB00000684968044AC1F3C221515CC8407047CC
:100AC00014000020001002402C25000812A185B05F
:100AD0000FC98DE80F0014A0144A006804905168F3
:100AE000134801F00C03042B10D0082B0ED1C1F3D6
:100AF0008343C9031DF803000AD5516804AAC1F352
:100B00004041515C0A4A5043B0FBF1F005B07047D8
:100B100008494843FAE700000203040506070809EC
:100B20000A0B0C0D0E0F1010010200000010024005
:100B300000127A0000093D002DE9F84F04460078C4
:100B4000B94DC00748D06868C0F38100012807D0BC
:100B50006868C0F38100022809D16868C00306D51F
:100B60002868800338D5606800286FD034E060685A
:100B7000B0F5803F0BD010B1B0F5A02F11D0286890
:100B800020F480302860286820F4802002E0286863
:100B900040F480302860606888B1FFF741FD064668
:100BA00009E0286840F480202860F0E7FFF738FD6E
:100BB000801B642875D828688003F7D50CE0FFF700
:100BC0002FFD064605E000BFFFF72AFD801B6428C5
:100BD000F0D828688003F7D42078944E80074FF02F
:100BE00001094FF000083BD5686810F00C0F07D0E2
:100BF0006868C0F38100022809D16868C00306D480
:100C00002868800714D5206901281FD110E02069C9
:100C1000B0B1C6F80090FFF703FD074605E000BF3E
:100C2000FFF7FEFCC01B0228C4D828688007F7D550
:100C30002868616920F0F80040EAC10028600FE0F0
:100C4000C6F80080FFF7ECFC074606E0E9E000BFCD
:100C5000FFF7E6FCC01B022823D828688007F7D4DA
:100C6000207800072CD57248A169D9B1C0F800904E
:100C7000FFF7D6FC074604E0FFF7D2FCC01B0228B2
:100C80000FD8686A8007F7D56A484FF4FA510068B0
:100C9000B0FBF1F0009000BF0098411E0091FAD225
:100CA0000EE080E0C0F80080FFF7BAFC074604E0E1
:100CB000FFF7B6FCC01B022875D8686A8007F7D416
:100CC0002078400760D5E8690027C00008D4E869AB
:100CD00040F08050E861E869012700F08050009002
:100CE00055480168C90513D40168834641F48071F1
:100CF0000160FFF795FC824606E000BFFFF790FC1D
:100D0000A0EB0A0064284ED8DBF80000C005F5D53A
:100D1000E06801280AD008B1052813D0286A20F01D
:100D200001002862286A20F0040002E0286A40F0EE
:100D300001002862E06841F2883B98B1FFF770FC3F
:100D400082460BE0286A40F004002862EEE700BF0C
:100D5000FFF766FCA0EB0A0159455AD8286A8007BC
:100D6000F6D50CE0FFF75CFC824605E0FFF758FC87
:100D7000A0EB0A0159454CD8286A8007F6D41FB168
:100D8000E86920F08050E861E06988B36968C1F3E0
:100D90008101022945D00228C6F8608004D0FFF7FF
:100DA0003FFC044638E034E0FFF73AFC074604E035
:100DB000FFF736FCC01B02282BD828688001F7D427
:100DC000206AB0F5803F05D16868A16820F4003042
:100DD00008436860D4E908010843696821F4741184
:100DE00008436860C6F86090FFF71AFC044606E006
:100DF00015E000BFFFF714FC001B022809D8286883
:100E00008001F7D50BE000BFFFF70AFC001B0228AA
:100E100002D90320BDE8F88F28688001F4D40020AF
:100E2000F8E70120F6E7000000100240000042420F
:100E3000800442421400002000700040704700000F
:100E400038B504460068426881684B0605D4CB0774
:100E500003D0530601D5216C04E08B0707D5130698
:100E600005D5616C01B02046BDE83040084711F05F
:100E7000600F3FD093063DD54B060AD594F851300C
:100E8000032B34D0636D43F004036365C368836848
:100E90000093890609D5616D41F0010161658168A2
:100EA0000091016821F040010160606D002821D0AF
:100EB0002068416821F0E0014160012084F8510080
:100EC000900718D02068416821F0030141600C4D63
:100ED000E06C18B14563E06CFFF772FAA06C002873
:100EE00008D04563A06CBDE83840FFF769BAC16817
:100EF0008068009038BD2046FFF7A0FF38BD000095
:100F0000871B000870B5040005D00025A56294F881
:100F1000510010B104E0012070BD204600F034F80B
:100F2000022084F851002068016821F0400101602E
:100F3000D4E901010843D4E903121143084361696C
:100F40000843218B01F400710843E1690843216AD9
:100F50000843A16A084321680860A069042101EAE6
:100F60001040616A0843216848602168E06A0861AE
:100F70002068C16921F40061C1616565012084F8C0
:100F80005100002070BD000010B50068194986B0FE
:100F900088422CD11848816941F48051816180696F
:100FA000002400F4805004904FF40040CDE9000488
:100FB000694612480294FFF74FFA2820CDE9000451
:100FC00002940F4C69462046FFF746FA1020009025
:100FD000022001900320039069462046FFF73CFA67
:100FE0000848416841F0E06141F00101416006B00C
:100FF00010BD000000300140001002400008014018
:10100000000C014000000140F0B400248568134644
:1010100004261DB94268B2F5827F0DD090F85020A9
:10102000012A0FD0012280F8502090F85170002240
:10103000012F0AD0022431E080F85160F0BC0A464A
:1010400000F03EB80220F0BC704771B16BB180F87F
:101050005160426581638387C38702638286C2864B
:101060004264C16819B10F4902E0012416E00E493B
:101070000164B5F5004F04D101680B6823F4804387
:101080000B6001684B6843F060034B6001680B68BC
:101090005B0603D40B6843F040030B6080F85020DC
:1010A0002046D0E7A11C0008C11C00080522024907
:1010B0000248FFF7A9BF0000020000206C000020DA
:1010C000F0B590F850500024012D0CD0012580F887
:1010D000505090F8515000264768012D0BD0B7F5BD
:1010E000827F06D101E00220F0BD87680FB9042D90
:1010F00001D002242AE031B12AB123B190F8515035
:10110000012D02D004E0012420E0052580F8515093
:10111000466501638386C38682638387C387C1680C
:1011200019B10C4901640C4902E00C4901640C49F5
:10113000416401684A6842F0E0024A6001680A6856
:10114000520603D40A6842F040020A6080F85060F8
:101150002046F0BDCB190008291A0008FB19000829
:10116000591A000870474FF0E0210428086903D09D
:1011700020F004000861704740F00400FAE770476F
:1011800010B5401EB0F1807F01D3012010BD4FF09B
:10119000E02460610F21601700F006FC0020A061D0
:1011A00007202061002010BD10B5FFF7E8FF10BD3B
:1011B00010B590F83C20012A25D0012280F83C206F
:1011C000CA688C6822F4407222434C6822F4806220
:1011D00022430C6822F4006222430C6922F48052FC
:1011E00022434C6922F4005222438C6922F480424B
:1011F000224322F40041026800232143516480F815
:101200003C30002010BD022010BD30B590F83C20CD
:10121000012A20D0012280F83C20022380F83D30B2
:1012200003685C6824F070045C6003685C680D68A7
:101230002C435C6003689C6824F080049C60036815
:101240009C6849680C439C6080F83D20002180F830
:101250003C10084630BD022030BD00007FB5134A67
:10126000016802241248914204D14FF47061CDE923
:10127000001415E00325B1F1804F0FD00D4A9142C3
:1012800012D1C021CDE9001469460394FFF7E4F8B8
:10129000CDE9005469460848039403E0CDE90054C1
:1012A00069460394FFF7D8F87FBD0000002C014089
:1012B0000008014000040040000C014070B50446E5
:1012C00090F83C000D4601280DD0012684F83C60C2
:1012D000022084F83D0042B1042A18D0082A2AD0FE
:1012E0000C2A4DD139E0022070BD206800F0E4FDE9
:1012F0002068816941F0080181612068816921F0DD
:1013000004018161206881692A69114311E0206824
:1013100000F0FAFD2068816941F400618161206874
:10132000816921F480618161206881692A6941EACB
:101330000221816124E0206800F012FE2068C1696A
:1013400041F00801C1612068C16921F00401C16157
:101350002068C1692A69114311E0206800F02CFE61
:101360002068C16941F40061C1612068C16921F44C
:101370008061C1612068C1692A6941EA0221C161B5
:1013800084F83D60002084F83C0070BD10B5040076
:1013900003D094F83D0010B107E0012010BD0020FB
:1013A00084F83C00204600F00DF8022084F83D004F
:1013B000211D206800F03EFD012084F83D00002042
:1013C00010BD000008B5124A01681248914207D1C9
:1013D000816941F400618161806900F4006014E07A
:1013E000B1F1804F0AD00C4A91420FD1C16941F04E
:1013F0000201C161C06900F0020006E0C16941F06C
:101400000101C161C06900F00100009008BD000049
:10141000002C0140001002400004004010B50446BA
:101420000068012200F03CFD07492068884203D192
:10143000416C41F4004141642068016841F00101C0
:101440000160002010BD0000002C014010B50446D2
:101450000068002200F024FD104B41F211112068B9
:101460008A10984209D1036A0B4206D1036A1342DB
:1014700003D1436C23F4004343642068036A0B42A6
:1014800006D1016A114203D1016821F00101016016
:10149000012084F83D00002010BD0000002C014018
:1014A00070B5040004D094F83900002510B106E0AE
:1014B000012070BD84F83850204600F023F8242025
:1014C00084F839002068C16821F40051C1602046C9
:1014D00000F094FD2068016921F4904101612068C9
:1014E000416921F02A0141612068C16841F400513D
:1014F000C160E563202084F8390084F83A000020B8
:1015000070BD000030B5244D03680024234802213B
:10151000032285B0AB4221D1836943F480438361C8
:1015200080691F4D00F4804004904020CDE9000107
:10153000039269462846FEF78FFF8020CDE900041C
:10154000694628460294FEF787FF1648416841F035
:10155000E06141F00401416005B030BD124DAB4285
:10156000FAD1C36943F40033C361C0690F4D00F47D
:10157000003004900420CDE900010392694628461A
:10158000FEF76AFF0820CDE9000469462846029468
:10159000FEF762FFE0E70000003801400010024063
:1015A000000C0140000001400044004000080140E0
:1015B000FEE7000030B51C4885B0816941F020018C
:1015C0008161816901F020010491816941F0040188
:1015D0008161816901F004010491816941F0080190
:1015E00081618069114D00F008004FF4406404905F
:1015F000002221462846FFF70DF80120CDE90040E2
:1016000000240220CDE9024069462846FEF724FF67
:101610004FF4704000900648CDE901046946284621
:10162000FEF71AFF05B030BD00100240000C01406B
:10163000000011100E4810B50C4901600D494160C1
:1016400000214FF480428160C0E903124161816151
:10165000C1610162FEF7EAFF002805D0BDE8104035
:10166000422105A000F083BD10BD000000540040E1
:1016700018000020A08601002E2E2F5372632F69C0
:1016800032632E63000000000F4810B50D49016061
:10169000002141608160C160016120224161C0E997
:1016A00006120162416281620A21C162FFF72AFCCF
:1016B000002805D0BDE81040462104A000F057BD29
:1016C00010BD0000003001406C0000202E2E2F5372
:1016D00072632F7370692E630000000010B53448E8
:1016E00090B03249016047210024C0E9011440F262
:1016F000CF71C0E9031444618461FFF747FE18B15C
:1017000043212CA000F033FD0E940EA928480F941D
:10171000FFF77BFD18B14A2126A000F028FD6020CC
:10172000CDE90004029403940494059400226946D0
:101730001F480694FFF7C2FD18B156211DA000F006
:1017400016FD042269461A48FFF7B8FD18B15B215F
:1017500018A000F00CFD082269461548FFF7AEFD01
:1017600018B1602113A000F002FD0C226946104858
:10177000FFF7A4FD18B165210EA000F0F8FC079456
:10178000089409944FF400500A94CDE90B4007A93E
:1017900007480D94FFF70CFD18B1712105A000F06A
:1017A000E6FC0348FFF75AFD10B010BD002C0140C5
:1017B000C40000202E2E2F5372632F74696D2E6388
:1017C0000000000010B51D488AB04FF08041002491
:1017D000C0E900148460C46004618461FFF7D6FD31
:1017E00018B1852116A000F0C2FC079407A9134880
:1017F0000894FFF70AFD18B18C2111A000F0B7FC86
:101800006020CDE900040294002269460B4804944C
:10181000FFF754FD18B1952109A000F0A8FC04229F
:1018200069460648FFF74AFD18B19A2104A000F066
:101830009EFC0248FFF712FD0AB010BD0401002013
:101840002E2E2F5372632F74696D2E6300000000DB
:1018500010B529488AB02749016047210024C0E912
:10186000011440F2CF71C0E903148461FFF78EFDCB
:1018700018B1AE2121A000F07AFC079407A91E48F8
:101880000894FFF7C2FC18B1B5211CA000F06FFC52
:101890006020CDE9000402940022694616480494B1
:1018A000FFF70CFD18B1BE2114A000F060FC04226B
:1018B00069461148FFF702FD18B1C3210FA000F0DF
:1018C00056FC082269460C48FFF7F8FC18B1C821FD
:1018D0000AA000F04CFC0C2269460748FFF7EEFC1A
:1018E00018B1CD2105A000F042FC0348FFF7B6FC7B
:1018F0000AB010BD00040040440100202E2E2F53DA
:1019000072632F74696D2E63000000000D4810B5DE
:101910000B4901604FF4E1314160002181600C22EC
:10192000C160C0E904128161C161FFF7B9FD0028FF
:1019300005D0BDE81040432103A000F018BC10BD45
:1019400000380140840100202E2E2F5372632F7522
:10195000736172742E6300000D4810B50B4901606D
:101960004FF4E1314160002181600C22C160C0E987
:1019700004128161C161FFF793FD002805D0BDE825
:101980001040562103A000F0F2BB10BD00440040FF
:10199000C40100202E2E2F5372632F757361727451
:1019A0002E630000FEE770470907090E002806DADB
:1019B00000F00F0000F1E02080F8141D704700F1E6
:1019C000E02080F80014704770470168C968826B96
:1019D0001180816B891C8163C18F491EC187C18FB2
:1019E000002909D101684A6822F040024A60C18E8C
:1019F000002901D100F058B8704701680B7B816B5A
:101A00004A1C82630B70C18F491EC187C18F002998
:101A100009D101684A6822F060024A60C18E00293B
:101A200001D100F041B87047016B02680988D160AC
:101A3000016B891C0163C18E491EC186C18E0029BC
:101A400009D101684A6822F080024A60C18F0029EA
:101A500001D100F029B87047016B4A1C026302688B
:101A600009781173C18E491EC186C18E002909D122
:101A700001684A6822F080024A60C18F002901D1C2
:101A800000F012B8704738B50B46009204460022A9
:101A9000802100F024F9002804D0606D40F020007F
:101AA0006065032038BD000038B50446214845F67E
:101AB000C0510068B0FBF1F0642148430090FEF78C
:101AC000AFFD02462068416821F020014160009886
:101AD000411E009104D2606D40F02000606503E07B
:101AE000206880688007F2D564212046FFF7CBFF8D
:101AF00018B1606D40F020006065A06818B92068DA
:101B0000C16880680090616D012029B184F851009E
:101B10002046FFF793F938BD94F8511084F851002E
:101B20000429204602D0FFF71DFB38BDFFF7BEFA9F
:101B300038BD00001400002008B501684A6822F092
:101B400060024A604168B1F5827F0BD18168B1F5CE
:101B5000004F02D0B1F5806F04D101680A6822F00D
:101B600040020A60816819B90168CA6889680091F1
:101B7000012180F85110416D11B1FFF75FF908BDE7
:101B8000FFF794FA08BD10B5406A0021C187C186ED
:101B9000FFF754F910BD00002DE9F0410E4605464F
:101BA00002E03D48FFF74CF928790028F9D0287861
:101BB000B5F801404FF4966869283AD012DC4FF42A
:101BC0001677652824D006DC012814D0022818D006
:101BD000032858D117E0662820D0672821D068282C
:101BE00051D122E005276A3806284CD2DFE800F000
:101BF000292D343940442948048000F0F1FB204667
:101C000009E020B201E0604200B200F00FFC3AE0CF
:101C100000F0E6FB384600F05FFB34E000F0E0FB4C
:101C200031E000F0DDFB38461FE000F0D9FB002278
:101C300002E000F0D5FB01220021404600F0A7FAA7
:101C400021E000F0CDFB012102E000F0C9FB002102
:101C5000404600F02BFB16E000F0C2FBB4FBF7F0AF
:101C6000D9E700F0BDFBB4FBF7F000F04DFB0AE054
:101C700000F0B6FB002202E000F0B2FB0122214698
:101C8000404600F099FA0020014601E02954401C2A
:101C9000B042FBDBBDE8F0816C00002000000020BA
:101CA0000168C968826B1180816B891C8163C18F57
:101CB000491EC187C18F002901D1FFF73DBF704781
:101CC00001680B7B816B4A1C82630B70C18F491EBC
:101CD000C187C18F002901D1FFF72EBF70472DE9C1
:101CE000F0411D4617460E460446DDF8188035E0E3
:101CF000681C33D02DB1FEF793FCA0EB0800A8427E
:101D00002CD32068416821F0E00141606068B0F5A3
:101D1000827F0BD1A068B0F5004F02D0B0F5806F84
:101D200004D12068016821F040010160A06AB0F58B
:101D3000005F0AD1206801684DF6FF721140016012
:101D40002068016841F400510160012084F85100CD
:101D5000002084F850000320BDE8F08120688068EE
:101D600036EA000004D00020B842C1D10020F3E7D9
:101D70000120F9E7704710B5FEF724FDBDE81040DB
:101D8000FFF712BA30B58FB001210804CDE9001079
:101D90000024029402250491CDE907504FF4E0108D
:101DA00009906846FEF7C8FE00B1FEE70F20CDE9B6
:101DB0000A054FF48060CDE90C4002210AA80E9478
:101DC000FEF7B4FD00B1FEE7FEF75AFE4FF47A715C
:101DD000B0FBF1F0FFF7D4F90420FFF7C4F90022BB
:101DE0001146501EFEF770FD0FB030BD0D48016862
:101DF00041F00101016041680B4A114041600168F6
:101E00000A4A11400160016821F4802101604168A3
:101E100021F4FE0141604FF41F0181600449C003B9
:101E200008607047001002400000FFF8FFFFF6FE58
:101E300008ED00E0F0B50268164B174C174D4FF057
:101E40008047984205D0B84203D0A04201D0A842B2
:101E500003D122F070064A683243984205D0B84256
:101E600003D0A04201D0A84203D122F44074CA6832
:101E7000224322F080044A69224302608A68C262D7
:101E80000A688262984201D10969016301214161B6
:101E9000F0BD0000002C014000040040000800409C
:101EA00010B50123046A8B409C430462036A8A4094
:101EB0001343036210BD000030B5026A22F0010234
:101EC0000262026A4368846924F073050C682C433B
:101ED00022F002058A682A430A4DA8420BD122F05B
:101EE0000805CA6823F440732A434D6922F00402AE
:101EF0001D438B692B4343608461496841630262DF
:101F000030BD0000002C014030B5026A22F0100202
:101F10000262026A436884690D6824F4E64444EA74
:101F200005248D6822F0200242EA05120B4DA842DA
:101F30000ED1CD6822F0800242EA05124D6923F4E9
:101F4000406343EA85038D6922F0400243EA85033A
:101F50004360846149688163026230BD002C0140A6
:101F600030B5026A22F480720262036A4268C46970
:101F700023F4007324F073050C682C438D6843EA46
:101F800005230C4DA8420ED1CD6823F4006343EA2B
:101F900005234D6922F4405242EA05128D6923F46B
:101FA000806342EA05124260C4614968C16303620A
:101FB00030BD0000002C014030B5026A22F480528E
:101FC0000262046A4268C3690D6823F4E64343EA87
:101FD00005238D6824F4005444EA0534064DA842D4
:101FE00004D14D6922F4804242EA85124260C36105
:101FF00049680164046230BD002C01402DE9F041C4
:10200000044600680169E26821F44051114301610E
:102010002169A0680843616908432168CA6841F2E0
:102020000C639A430243CA6020684169A26921F4A3
:102030004071114341614C49206864253226884231
:102040003CD1FEF733FD00EBC00101EB00106168ED
:102050008900B0FBF1F7FEF729FD00EBC00101EBB1
:1020600000106168B0468900B0FBF1F0B0FBF5F0FC
:102070006FF01801484307EB800106EB0110B0FB3D
:10208000F5F000F0F006FEF711FD00EBC00101EBEA
:10209000001061688900B0FBF1F0B0FBF5F006EBD1
:1020A0000016FEF703FD00EBC00101EB00106168B4
:1020B0008900B0FBF1F7FEF7F9FC3BE0FEF7E6FC28
:1020C00000EBC00101EB001061688900B0FBF1F783
:1020D000FEF7DCFC00EBC00101EB00106168B046CC
:1020E0008900B0FBF1F0B0FBF5F06FF01801484348
:1020F00007EB800106EB0110B0FBF5F000F0F006F5
:10210000FEF7C4FC00EBC00101EB00106168890020
:10211000B0FBF1F0B0FBF5F006EB0016FEF7B6FCF5
:1021200000EBC00101EB001061688900B0FBF1F722
:10213000FEF7ACFC00EBC00101EB00106168890008
:10214000B0FBF1F0B0FBF5F06FF01801484307EB7E
:10215000800108EB0110B0FBF5F0216800F00F00E2
:1021600030448860BDE8F08100380140FEE7FEE7BA
:1021700002E008C8121F08C1002AFAD17047704750
:10218000002001E001C1121F002AFBD1704710B5E9
:102190000C4642B1012A0DD100F0CEF82046BDE830
:1021A000104000F0F9B800F0E7F82046BDE8104014
:1021B00000F0D2B810BD00002DE9F04115460F46E1
:1021C0000446FEF780F806463846FEF77CF81149CB
:1021D000FEF732F83146FDF7FDFFFEF792F821B227
:1021E000201A04B2002C00DA00244DB1012D0FD1C9
:1021F00088B200F0A1F8A0B2BDE8F04100F0BCB890
:1022000088B200F0B9F8A0B2BDE8F04100F094B88F
:10221000BDE8F08100401C46FEF7DCFA00F034F81F
:10222000FFF7B0FDFFF7C6F9FFF704FAFFF72CFA46
:10223000FFF754FAFFF7C6FAFFF70AFBFFF766FB52
:10224000FFF78AFB04210C48FFF7E8F808210A4849
:10225000FFF7E4F804210948FFF7E0F808210748F0
:10226000FFF7DCF8052206490648FEF7CDFE0521FA
:102270000348FFF791FCFAE7C40000204401002066
:10228000020000206C0000200648002101804180EF
:102290008180054981604902C1604FF07E51016132
:1022A00070470000040200200000A04010B5044662
:1022B000012908D000290DD100F06EF82046BDE8B4
:1022C000104000F039B800F057F82046BDE8104043
:1022D00000F042B810BD000070B50A4C054601463A
:1022E000A06800F069F82946206900F065F82946E1
:1022F000206800F061F82946A069BDE8704000F050
:102300005BB80000FC24000870B50A4C0546014685
:10231000E06800F051F82946606900F04DF8294660
:10232000606800F049F82946E069BDE8704000F0B7
:1023300043B80000FC24000870B5064D0446014671
:10234000286900F039F82146A869BDE8704000F01E
:1023500033B80000FC24000870B5064D0446014661
:10236000686900F029F82146E869BDE8704000F08E
:1023700023B80000FC24000870B5064D0446014651
:10238000A86800F019F821462868BDE8704000F000
:1023900013B80000FC24000870B5064D0446014641
:1023A000E86800F009F821466868BDE8704000F070
:1023B00003B80000FC24000870B504460D46D4E9BB
:1023C0000001FFF743F820680168606820F003000F
:1023D00034300D50D4E90001BDE87040FFF71EB85D
:1023E00010B5114C206803C8FFF730F8A06803C887
:1023F000FFF72CF8206903C8FFF728F8A06903C885
:10240000FFF724F8606803C8FFF720F8E06803C806
:10241000FFF71CF8606903C8FFF718F8E06903C804
:10242000BDE81040FFF712B8FC2400082DE9F04188
:10243000204C0746B4F90000FDF73CFF2169FDF789
:10244000C9FE0646B4F90200FDF734FFE168FDF766
:10245000C1FE05463846FDF72DFFA168FDF7BAFE1F
:102460002946FDF75FFE3146FDF7AEFEFDF730FF72
:10247000A080FFF7B5FFB4F904100F4B42F21070C3
:10248000002905DD814200DDA080A188012207E04E
:10249000494209B2A180814200DDA080A1880022CA
:1024A0001888FFF789FE2780608838446080BDE87F
:1024B000F08100000402002000000020C400002081
:1024C00008000000C40000200C000000C400002030
:1024D00004000000C40000200000000044010020AF
:1024E00008000000440100200C000000440100200E
:1024F000040000004401002000000000BC2400088B
:10250000C4240008CC240008D4240008DC240008DB
:10251000E4240008EC240008F42400080000000073
:102520000000000001020304060708090000000083
:1025300001020304542500080000002018000000D8
:10254000702100086C25000818000020000600001B
:1025500080210008000000000000000001000000D1
:0C256000100000000000000000A24A046F
:04000005080000ED02
:00000001FF
